{
  "_format": "hh-sol-artifact-1",
  "contractName": "DeployerApplication",
  "sourceName": "contracts/TenderChain.sol",
  "abi": [
    {
      "inputs": [],
      "stateMutability": "nonpayable",
      "type": "constructor"
    },
    {
      "anonymous": false,
      "inputs": [
        {
          "indexed": false,
          "internalType": "uint256",
          "name": "tenderid",
          "type": "uint256"
        },
        {
          "indexed": false,
          "internalType": "string",
          "name": "name",
          "type": "string"
        },
        {
          "indexed": false,
          "internalType": "string",
          "name": "phoneNo",
          "type": "string"
        },
        {
          "indexed": false,
          "internalType": "uint256",
          "name": "biddingPrice",
          "type": "uint256"
        },
        {
          "indexed": false,
          "internalType": "string",
          "name": "ApplicantEmail",
          "type": "string"
        }
      ],
      "name": "ApplicantApplied",
      "type": "event"
    },
    {
      "anonymous": false,
      "inputs": [
        {
          "indexed": true,
          "internalType": "string",
          "name": "UserEmail",
          "type": "string"
        },
        {
          "indexed": false,
          "internalType": "uint256",
          "name": "tenderid",
          "type": "uint256"
        },
        {
          "indexed": false,
          "internalType": "string",
          "name": "title",
          "type": "string"
        },
        {
          "indexed": false,
          "internalType": "string",
          "name": "status",
          "type": "string"
        },
        {
          "indexed": false,
          "internalType": "string",
          "name": "details",
          "type": "string"
        },
        {
          "indexed": false,
          "internalType": "string",
          "name": "deployedTime",
          "type": "string"
        },
        {
          "indexed": false,
          "internalType": "string",
          "name": "startDate",
          "type": "string"
        },
        {
          "indexed": false,
          "internalType": "string",
          "name": "lastDate",
          "type": "string"
        },
        {
          "indexed": false,
          "internalType": "string",
          "name": "bidOpeningDate",
          "type": "string"
        },
        {
          "indexed": false,
          "internalType": "uint256",
          "name": "minimumBiddingPrice",
          "type": "uint256"
        },
        {
          "indexed": false,
          "internalType": "string",
          "name": "organizationName",
          "type": "string"
        }
      ],
      "name": "ContractDeployed",
      "type": "event"
    },
    {
      "anonymous": false,
      "inputs": [
        {
          "indexed": true,
          "internalType": "address",
          "name": "userAddress",
          "type": "address"
        },
        {
          "indexed": false,
          "internalType": "string",
          "name": "name",
          "type": "string"
        },
        {
          "indexed": false,
          "internalType": "string",
          "name": "email",
          "type": "string"
        },
        {
          "indexed": false,
          "internalType": "string",
          "name": "country",
          "type": "string"
        },
        {
          "indexed": false,
          "internalType": "string",
          "name": "phoneNumber",
          "type": "string"
        },
        {
          "indexed": false,
          "internalType": "address",
          "name": "HashofUser",
          "type": "address"
        }
      ],
      "name": "UserAdded",
      "type": "event"
    },
    {
      "inputs": [
        {
          "internalType": "uint256",
          "name": "_TenderId",
          "type": "uint256"
        },
        {
          "internalType": "string",
          "name": "_Name",
          "type": "string"
        },
        {
          "internalType": "string",
          "name": "_PhoneNO",
          "type": "string"
        },
        {
          "internalType": "uint256",
          "name": "_BiddingPrice",
          "type": "uint256"
        },
        {
          "internalType": "string",
          "name": "_ApplicantEmail",
          "type": "string"
        }
      ],
      "name": "Apply",
      "outputs": [],
      "stateMutability": "nonpayable",
      "type": "function"
    },
    {
      "inputs": [
        {
          "internalType": "string",
          "name": "_name",
          "type": "string"
        },
        {
          "internalType": "string",
          "name": "_email",
          "type": "string"
        },
        {
          "internalType": "string",
          "name": "_country",
          "type": "string"
        },
        {
          "internalType": "string",
          "name": "_password",
          "type": "string"
        },
        {
          "internalType": "string",
          "name": "_phoneNumber",
          "type": "string"
        }
      ],
      "name": "addUser",
      "outputs": [],
      "stateMutability": "nonpayable",
      "type": "function"
    },
    {
      "inputs": [
        {
          "internalType": "uint256",
          "name": "_tenderid",
          "type": "uint256"
        },
        {
          "internalType": "string",
          "name": "_title",
          "type": "string"
        },
        {
          "internalType": "string",
          "name": "_status",
          "type": "string"
        },
        {
          "internalType": "string",
          "name": "_details",
          "type": "string"
        },
        {
          "internalType": "string",
          "name": "_DeployedTime",
          "type": "string"
        },
        {
          "internalType": "string",
          "name": "_Startdate",
          "type": "string"
        },
        {
          "internalType": "string",
          "name": "_Lastdate",
          "type": "string"
        },
        {
          "internalType": "string",
          "name": "_BidopeningDate",
          "type": "string"
        },
        {
          "internalType": "uint256",
          "name": "_minimumBiddingPrice",
          "type": "uint256"
        },
        {
          "internalType": "string",
          "name": "_OrganizationName",
          "type": "string"
        }
      ],
      "name": "deployContract",
      "outputs": [],
      "stateMutability": "nonpayable",
      "type": "function"
    },
    {
      "inputs": [
        {
          "internalType": "string",
          "name": "_email",
          "type": "string"
        }
      ],
      "name": "getAddress",
      "outputs": [
        {
          "internalType": "address",
          "name": "",
          "type": "address"
        }
      ],
      "stateMutability": "view",
      "type": "function"
    },
    {
      "inputs": [
        {
          "internalType": "uint256",
          "name": "_TenderId",
          "type": "uint256"
        }
      ],
      "name": "getApplicants",
      "outputs": [
        {
          "components": [
            {
              "internalType": "string",
              "name": "Name",
              "type": "string"
            },
            {
              "internalType": "string",
              "name": "PhoneNO",
              "type": "string"
            },
            {
              "internalType": "uint256",
              "name": "BiddingPrice",
              "type": "uint256"
            },
            {
              "internalType": "string",
              "name": "ApplicantEmail",
              "type": "string"
            }
          ],
          "internalType": "struct DeployerApplication.Applicant[]",
          "name": "",
          "type": "tuple[]"
        }
      ],
      "stateMutability": "view",
      "type": "function"
    },
    {
      "inputs": [
        {
          "internalType": "string",
          "name": "_email",
          "type": "string"
        }
      ],
      "name": "getMemo",
      "outputs": [
        {
          "components": [
            {
              "internalType": "uint256",
              "name": "tenderid",
              "type": "uint256"
            },
            {
              "internalType": "string",
              "name": "status",
              "type": "string"
            },
            {
              "internalType": "string",
              "name": "title",
              "type": "string"
            },
            {
              "internalType": "string",
              "name": "details",
              "type": "string"
            },
            {
              "internalType": "string",
              "name": "DeployedTime",
              "type": "string"
            },
            {
              "internalType": "string",
              "name": "Startdate",
              "type": "string"
            },
            {
              "internalType": "string",
              "name": "Lastdate",
              "type": "string"
            },
            {
              "internalType": "string",
              "name": "BidopeningDate",
              "type": "string"
            },
            {
              "internalType": "uint256",
              "name": "minimumBiddingPrice",
              "type": "uint256"
            },
            {
              "internalType": "string",
              "name": "OrganizationName",
              "type": "string"
            }
          ],
          "internalType": "struct DeployerApplication.ListObjects[]",
          "name": "",
          "type": "tuple[]"
        }
      ],
      "stateMutability": "view",
      "type": "function"
    },
    {
      "inputs": [],
      "name": "getOwner",
      "outputs": [
        {
          "internalType": "address",
          "name": "",
          "type": "address"
        }
      ],
      "stateMutability": "view",
      "type": "function"
    },
    {
      "inputs": [
        {
          "internalType": "string",
          "name": "_email",
          "type": "string"
        }
      ],
      "name": "getPassword",
      "outputs": [
        {
          "internalType": "string",
          "name": "",
          "type": "string"
        }
      ],
      "stateMutability": "view",
      "type": "function"
    },
    {
      "inputs": [],
      "name": "listOfContracts",
      "outputs": [
        {
          "components": [
            {
              "internalType": "uint256",
              "name": "tenderid",
              "type": "uint256"
            },
            {
              "internalType": "string",
              "name": "status",
              "type": "string"
            },
            {
              "internalType": "string",
              "name": "title",
              "type": "string"
            },
            {
              "internalType": "string",
              "name": "details",
              "type": "string"
            },
            {
              "internalType": "string",
              "name": "DeployedTime",
              "type": "string"
            },
            {
              "internalType": "string",
              "name": "Startdate",
              "type": "string"
            },
            {
              "internalType": "string",
              "name": "Lastdate",
              "type": "string"
            },
            {
              "internalType": "string",
              "name": "BidopeningDate",
              "type": "string"
            },
            {
              "internalType": "uint256",
              "name": "minimumBiddingPrice",
              "type": "uint256"
            },
            {
              "internalType": "string",
              "name": "OrganizationName",
              "type": "string"
            }
          ],
          "internalType": "struct DeployerApplication.ListObjects[]",
          "name": "",
          "type": "tuple[]"
        }
      ],
      "stateMutability": "view",
      "type": "function"
    }
  ],
  "bytecode": "0x608060405234801561001057600080fd5b50336000806101000a81548173ffffffffffffffffffffffffffffffffffffffff021916908373ffffffffffffffffffffffffffffffffffffffff160217905550612f76806100606000396000f3fe608060405234801561001057600080fd5b50600436106100935760003560e01c80636cf5d86e116100665780636cf5d86e14610130578063893d20e814610160578063b37a3d821461017e578063bf40fac11461019a578063d57230f7146101ca57610093565b806301b8c31c14610098578063216d90c2146100c85780633710b04e146100f85780636456410414610114575b600080fd5b6100b260048036038101906100ad9190611cf1565b6101e8565b6040516100bf9190611dc2565b60405180910390f35b6100e260048036038101906100dd9190611cf1565b610298565b6040516100ef9190612014565b60405180910390f35b610112600480360381019061010d9190612062565b610867565b005b61012e60048036038101906101299190612221565b610d0a565b005b61014a600480360381019061014591906122f0565b6110e1565b6040516101579190612450565b60405180910390f35b610168611313565b60405161017591906124b3565b60405180910390f35b610198600480360381019061019391906124ce565b61133c565b005b6101b460048036038101906101af9190611cf1565b61164b565b6040516101c191906124b3565b60405180910390f35b6101d2611693565b6040516101df9190612014565b60405180910390f35b60606003826040516101fa9190612611565b9081526020016040518091039020805461021390612657565b80601f016020809104026020016040519081016040528092919081815260200182805461023f90612657565b801561028c5780601f106102615761010080835404028352916020019161028c565b820191906000526020600020905b81548152906001019060200180831161026f57829003601f168201915b50505050509050919050565b6060600073ffffffffffffffffffffffffffffffffffffffff166002836040516102c29190612611565b908152602001604051809103902060009054906101000a900473ffffffffffffffffffffffffffffffffffffffff1673ffffffffffffffffffffffffffffffffffffffff1603610347576040517f08c379a000000000000000000000000000000000000000000000000000000000815260040161033e906126d4565b60405180910390fd5b6004826040516103579190612611565b9081526020016040518091039020805480602002602001604051908101604052809291908181526020016000905b8282101561085c57838290600052602060002090600a020160405180610140016040529081600082015481526020016001820180546103c390612657565b80601f01602080910402602001604051908101604052809291908181526020018280546103ef90612657565b801561043c5780601f106104115761010080835404028352916020019161043c565b820191906000526020600020905b81548152906001019060200180831161041f57829003601f168201915b5050505050815260200160028201805461045590612657565b80601f016020809104026020016040519081016040528092919081815260200182805461048190612657565b80156104ce5780601f106104a3576101008083540402835291602001916104ce565b820191906000526020600020905b8154815290600101906020018083116104b157829003601f168201915b505050505081526020016003820180546104e790612657565b80601f016020809104026020016040519081016040528092919081815260200182805461051390612657565b80156105605780601f1061053557610100808354040283529160200191610560565b820191906000526020600020905b81548152906001019060200180831161054357829003601f168201915b5050505050815260200160048201805461057990612657565b80601f01602080910402602001604051908101604052809291908181526020018280546105a590612657565b80156105f25780601f106105c7576101008083540402835291602001916105f2565b820191906000526020600020905b8154815290600101906020018083116105d557829003601f168201915b5050505050815260200160058201805461060b90612657565b80601f016020809104026020016040519081016040528092919081815260200182805461063790612657565b80156106845780601f1061065957610100808354040283529160200191610684565b820191906000526020600020905b81548152906001019060200180831161066757829003601f168201915b5050505050815260200160068201805461069d90612657565b80601f01602080910402602001604051908101604052809291908181526020018280546106c990612657565b80156107165780601f106106eb57610100808354040283529160200191610716565b820191906000526020600020905b8154815290600101906020018083116106f957829003601f168201915b5050505050815260200160078201805461072f90612657565b80601f016020809104026020016040519081016040528092919081815260200182805461075b90612657565b80156107a85780601f1061077d576101008083540402835291602001916107a8565b820191906000526020600020905b81548152906001019060200180831161078b57829003601f168201915b50505050508152602001600882015481526020016009820180546107cb90612657565b80601f01602080910402602001604051908101604052809291908181526020018280546107f790612657565b80156108445780601f1061081957610100808354040283529160200191610844565b820191906000526020600020905b81548152906001019060200180831161082757829003601f168201915b50505050508152505081526020019060010190610385565b505050509050919050565b600073ffffffffffffffffffffffffffffffffffffffff166002600760003373ffffffffffffffffffffffffffffffffffffffff1673ffffffffffffffffffffffffffffffffffffffff1681526020019081526020016000206001016040516108d0919061278c565b908152602001604051809103902060009054906101000a900473ffffffffffffffffffffffffffffffffffffffff1673ffffffffffffffffffffffffffffffffffffffff1603610955576040517f08c379a000000000000000000000000000000000000000000000000000000000815260040161094c906127ef565b60405180910390fd5b6000600760003373ffffffffffffffffffffffffffffffffffffffff1673ffffffffffffffffffffffffffffffffffffffff16815260200190815260200160002060010180546109a490612657565b80601f01602080910402602001604051908101604052809291908181526020018280546109d090612657565b8015610a1d5780601f106109f257610100808354040283529160200191610a1d565b820191906000526020600020905b815481529060010190602001808311610a0057829003601f168201915b5050505050905060006040518061014001604052808d81526020018b81526020018c81526020018a8152602001898152602001888152602001878152602001868152602001858152602001848152509050600482604051610a7e9190612611565b90815260200160405180910390208190806001815401808255809150506001900390600052602060002090600a0201600090919091909150600082015181600001556020820151816001019081610ad591906129a6565b506040820151816002019081610aeb91906129a6565b506060820151816003019081610b0191906129a6565b506080820151816004019081610b1791906129a6565b5060a0820151816005019081610b2d91906129a6565b5060c0820151816006019081610b4391906129a6565b5060e0820151816007019081610b5991906129a6565b506101008201518160080155610120820151816009019081610b7b91906129a6565b50505060068190806001815401808255809150506001900390600052602060002090600a0201600090919091909150600082015181600001556020820151816001019081610bc991906129a6565b506040820151816002019081610bdf91906129a6565b506060820151816003019081610bf591906129a6565b506080820151816004019081610c0b91906129a6565b5060a0820151816005019081610c2191906129a6565b5060c0820151816006019081610c3791906129a6565b5060e0820151816007019081610c4d91906129a6565b506101008201518160080155610120820151816009019081610c6f91906129a6565b50505060018060008e815260200190815260200160002060006101000a81548160ff02191690831515021790555081604051610cab9190612611565b60405180910390207fdd25f4ad683f9264f286a72b0bda350db514ed11d128d80d92dc75d69fca3dcc8d8d8d8d8d8d8d8d8d8d604051610cf49a99989796959493929190612a87565b60405180910390a2505050505050505050505050565b600115156001600087815260200190815260200160002060009054906101000a900460ff16151514610d71576040517f08c379a0000000000000000000000000000000000000000000000000000000008152600401610d6890612ba7565b60405180910390fd5b60006004600760003373ffffffffffffffffffffffffffffffffffffffff1673ffffffffffffffffffffffffffffffffffffffff168152602001908152602001600020600101604051610dc4919061278c565b9081526020016040518091039020905060008060005b8380549050811015610e305788848281548110610dfa57610df9612bc7565b5b90600052602060002090600a02016000015403610e1d5780925060019150610e30565b8080610e2890612c25565b915050610dda565b5080610e71576040517f08c379a0000000000000000000000000000000000000000000000000000000008152600401610e6890612cb9565b60405180910390fd5b6000838381548110610e8657610e85612bc7565b5b90600052602060002090600a020160080154905080861015610edd576040517f08c379a0000000000000000000000000000000000000000000000000000000008152600401610ed490612d4b565b60405180910390fd5b6000805b600560008c815260200190815260200160002080549050811015610fa35786604051602001610f109190612611565b60405160208183030381529060405280519060200120600560008d81526020019081526020016000208281548110610f4b57610f4a612bc7565b5b9060005260206000209060040201600301604051602001610f6c919061278c565b6040516020818303038152906040528051906020012003610f905760019150610fa3565b8080610f9b90612c25565b915050610ee1565b508015610fe5576040517f08c379a0000000000000000000000000000000000000000000000000000000008152600401610fdc90612ddd565b60405180910390fd5b600060405180608001604052808b81526020018a8152602001898152602001888152509050600560008c8152602001908152602001600020819080600181540180825580915050600190039060005260206000209060040201600090919091909150600082015181600001908161105c91906129a6565b50602082015181600101908161107291906129a6565b5060408201518160020155606082015181600301908161109291906129a6565b5050507f58d35c41205787785c2a1825481e26d7c38c1f85d6c02fb840319286f952e41b8b8b8b8b8b6040516110cc959493929190612dfd565b60405180910390a15050505050505050505050565b606060056000838152602001908152602001600020805480602002602001604051908101604052809291908181526020016000905b82821015611308578382906000526020600020906004020160405180608001604052908160008201805461114990612657565b80601f016020809104026020016040519081016040528092919081815260200182805461117590612657565b80156111c25780601f10611197576101008083540402835291602001916111c2565b820191906000526020600020905b8154815290600101906020018083116111a557829003601f168201915b505050505081526020016001820180546111db90612657565b80601f016020809104026020016040519081016040528092919081815260200182805461120790612657565b80156112545780601f1061122957610100808354040283529160200191611254565b820191906000526020600020905b81548152906001019060200180831161123757829003601f168201915b505050505081526020016002820154815260200160038201805461127790612657565b80601f01602080910402602001604051908101604052809291908181526020018280546112a390612657565b80156112f05780601f106112c5576101008083540402835291602001916112f0565b820191906000526020600020905b8154815290600101906020018083116112d357829003601f168201915b50505050508152505081526020019060010190611116565b505050509050919050565b60008060009054906101000a900473ffffffffffffffffffffffffffffffffffffffff16905090565b600073ffffffffffffffffffffffffffffffffffffffff166002856040516113649190612611565b908152602001604051809103902060009054906101000a900473ffffffffffffffffffffffffffffffffffffffff1673ffffffffffffffffffffffffffffffffffffffff16146113e9576040517f08c379a00000000000000000000000000000000000000000000000000000000081526004016113e090612eb1565b60405180910390fd5b60003390506040518060a001604052808781526020018681526020018581526020018381526020018273ffffffffffffffffffffffffffffffffffffffff16815250600760008373ffffffffffffffffffffffffffffffffffffffff1673ffffffffffffffffffffffffffffffffffffffff168152602001908152602001600020600082015181600001908161147f91906129a6565b50602082015181600101908161149591906129a6565b5060408201518160020190816114ab91906129a6565b5060608201518160030190816114c191906129a6565b5060808201518160040160006101000a81548173ffffffffffffffffffffffffffffffffffffffff021916908373ffffffffffffffffffffffffffffffffffffffff1602179055509050508060028660405161151d9190612611565b908152602001604051809103902060006101000a81548173ffffffffffffffffffffffffffffffffffffffff021916908373ffffffffffffffffffffffffffffffffffffffff1602179055506001600860008373ffffffffffffffffffffffffffffffffffffffff1673ffffffffffffffffffffffffffffffffffffffff16815260200190815260200160002060006101000a81548160ff021916908315150217905550826003866040516115d29190612611565b908152602001604051809103902090816115ec91906129a6565b508073ffffffffffffffffffffffffffffffffffffffff167fedc1c608306a7679c53fde5bc4cd1b1ee13e11f0fa0d9cad68b8e7252c6989a4878787868660405161163b959493929190612ed1565b60405180910390a2505050505050565b600060028260405161165d9190612611565b908152602001604051809103902060009054906101000a900473ffffffffffffffffffffffffffffffffffffffff169050919050565b60606006805480602002602001604051908101604052809291908181526020016000905b82821015611b8e57838290600052602060002090600a020160405180610140016040529081600082015481526020016001820180546116f590612657565b80601f016020809104026020016040519081016040528092919081815260200182805461172190612657565b801561176e5780601f106117435761010080835404028352916020019161176e565b820191906000526020600020905b81548152906001019060200180831161175157829003601f168201915b5050505050815260200160028201805461178790612657565b80601f01602080910402602001604051908101604052809291908181526020018280546117b390612657565b80156118005780601f106117d557610100808354040283529160200191611800565b820191906000526020600020905b8154815290600101906020018083116117e357829003601f168201915b5050505050815260200160038201805461181990612657565b80601f016020809104026020016040519081016040528092919081815260200182805461184590612657565b80156118925780601f1061186757610100808354040283529160200191611892565b820191906000526020600020905b81548152906001019060200180831161187557829003601f168201915b505050505081526020016004820180546118ab90612657565b80601f01602080910402602001604051908101604052809291908181526020018280546118d790612657565b80156119245780601f106118f957610100808354040283529160200191611924565b820191906000526020600020905b81548152906001019060200180831161190757829003601f168201915b5050505050815260200160058201805461193d90612657565b80601f016020809104026020016040519081016040528092919081815260200182805461196990612657565b80156119b65780601f1061198b576101008083540402835291602001916119b6565b820191906000526020600020905b81548152906001019060200180831161199957829003601f168201915b505050505081526020016006820180546119cf90612657565b80601f01602080910402602001604051908101604052809291908181526020018280546119fb90612657565b8015611a485780601f10611a1d57610100808354040283529160200191611a48565b820191906000526020600020905b815481529060010190602001808311611a2b57829003601f168201915b50505050508152602001600782018054611a6190612657565b80601f0160208091040260200160405190810160405280929190818152602001828054611a8d90612657565b8015611ada5780601f10611aaf57610100808354040283529160200191611ada565b820191906000526020600020905b815481529060010190602001808311611abd57829003601f168201915b5050505050815260200160088201548152602001600982018054611afd90612657565b80601f0160208091040260200160405190810160405280929190818152602001828054611b2990612657565b8015611b765780601f10611b4b57610100808354040283529160200191611b76565b820191906000526020600020905b815481529060010190602001808311611b5957829003601f168201915b505050505081525050815260200190600101906116b7565b50505050905090565b6000604051905090565b600080fd5b600080fd5b600080fd5b600080fd5b6000601f19601f8301169050919050565b7f4e487b7100000000000000000000000000000000000000000000000000000000600052604160045260246000fd5b611bfe82611bb5565b810181811067ffffffffffffffff82111715611c1d57611c1c611bc6565b5b80604052505050565b6000611c30611b97565b9050611c3c8282611bf5565b919050565b600067ffffffffffffffff821115611c5c57611c5b611bc6565b5b611c6582611bb5565b9050602081019050919050565b82818337600083830152505050565b6000611c94611c8f84611c41565b611c26565b905082815260208101848484011115611cb057611caf611bb0565b5b611cbb848285611c72565b509392505050565b600082601f830112611cd857611cd7611bab565b5b8135611ce8848260208601611c81565b91505092915050565b600060208284031215611d0757611d06611ba1565b5b600082013567ffffffffffffffff811115611d2557611d24611ba6565b5b611d3184828501611cc3565b91505092915050565b600081519050919050565b600082825260208201905092915050565b60005b83811015611d74578082015181840152602081019050611d59565b83811115611d83576000848401525b50505050565b6000611d9482611d3a565b611d9e8185611d45565b9350611dae818560208601611d56565b611db781611bb5565b840191505092915050565b60006020820190508181036000830152611ddc8184611d89565b905092915050565b600081519050919050565b600082825260208201905092915050565b6000819050602082019050919050565b6000819050919050565b611e2381611e10565b82525050565b600082825260208201905092915050565b6000611e4582611d3a565b611e4f8185611e29565b9350611e5f818560208601611d56565b611e6881611bb5565b840191505092915050565b600061014083016000830151611e8c6000860182611e1a565b5060208301518482036020860152611ea48282611e3a565b91505060408301518482036040860152611ebe8282611e3a565b91505060608301518482036060860152611ed88282611e3a565b91505060808301518482036080860152611ef28282611e3a565b91505060a083015184820360a0860152611f0c8282611e3a565b91505060c083015184820360c0860152611f268282611e3a565b91505060e083015184820360e0860152611f408282611e3a565b915050610100830151611f57610100860182611e1a565b50610120830151848203610120860152611f718282611e3a565b9150508091505092915050565b6000611f8a8383611e73565b905092915050565b6000602082019050919050565b6000611faa82611de4565b611fb48185611def565b935083602082028501611fc685611e00565b8060005b858110156120025784840389528151611fe38582611f7e565b9450611fee83611f92565b925060208a01995050600181019050611fca565b50829750879550505050505092915050565b6000602082019050818103600083015261202e8184611f9f565b905092915050565b61203f81611e10565b811461204a57600080fd5b50565b60008135905061205c81612036565b92915050565b6000806000806000806000806000806101408b8d03121561208657612085611ba1565b5b60006120948d828e0161204d565b9a505060208b013567ffffffffffffffff8111156120b5576120b4611ba6565b5b6120c18d828e01611cc3565b99505060408b013567ffffffffffffffff8111156120e2576120e1611ba6565b5b6120ee8d828e01611cc3565b98505060608b013567ffffffffffffffff81111561210f5761210e611ba6565b5b61211b8d828e01611cc3565b97505060808b013567ffffffffffffffff81111561213c5761213b611ba6565b5b6121488d828e01611cc3565b96505060a08b013567ffffffffffffffff81111561216957612168611ba6565b5b6121758d828e01611cc3565b95505060c08b013567ffffffffffffffff81111561219657612195611ba6565b5b6121a28d828e01611cc3565b94505060e08b013567ffffffffffffffff8111156121c3576121c2611ba6565b5b6121cf8d828e01611cc3565b9350506101006121e18d828e0161204d565b9250506101208b013567ffffffffffffffff81111561220357612202611ba6565b5b61220f8d828e01611cc3565b9150509295989b9194979a5092959850565b600080600080600060a0868803121561223d5761223c611ba1565b5b600061224b8882890161204d565b955050602086013567ffffffffffffffff81111561226c5761226b611ba6565b5b61227888828901611cc3565b945050604086013567ffffffffffffffff81111561229957612298611ba6565b5b6122a588828901611cc3565b93505060606122b68882890161204d565b925050608086013567ffffffffffffffff8111156122d7576122d6611ba6565b5b6122e388828901611cc3565b9150509295509295909350565b60006020828403121561230657612305611ba1565b5b60006123148482850161204d565b91505092915050565b600081519050919050565b600082825260208201905092915050565b6000819050602082019050919050565b600060808301600083015184820360008601526123668282611e3a565b915050602083015184820360208601526123808282611e3a565b91505060408301516123956040860182611e1a565b50606083015184820360608601526123ad8282611e3a565b9150508091505092915050565b60006123c68383612349565b905092915050565b6000602082019050919050565b60006123e68261231d565b6123f08185612328565b93508360208202850161240285612339565b8060005b8581101561243e578484038952815161241f85826123ba565b945061242a836123ce565b925060208a01995050600181019050612406565b50829750879550505050505092915050565b6000602082019050818103600083015261246a81846123db565b905092915050565b600073ffffffffffffffffffffffffffffffffffffffff82169050919050565b600061249d82612472565b9050919050565b6124ad81612492565b82525050565b60006020820190506124c860008301846124a4565b92915050565b600080600080600060a086880312156124ea576124e9611ba1565b5b600086013567ffffffffffffffff81111561250857612507611ba6565b5b61251488828901611cc3565b955050602086013567ffffffffffffffff81111561253557612534611ba6565b5b61254188828901611cc3565b945050604086013567ffffffffffffffff81111561256257612561611ba6565b5b61256e88828901611cc3565b935050606086013567ffffffffffffffff81111561258f5761258e611ba6565b5b61259b88828901611cc3565b925050608086013567ffffffffffffffff8111156125bc576125bb611ba6565b5b6125c888828901611cc3565b9150509295509295909350565b600081905092915050565b60006125eb82611d3a565b6125f581856125d5565b9350612605818560208601611d56565b80840191505092915050565b600061261d82846125e0565b915081905092915050565b7f4e487b7100000000000000000000000000000000000000000000000000000000600052602260045260246000fd5b6000600282049050600182168061266f57607f821691505b60208210810361268257612681612628565b5b50919050565b7f456d61696c206164647265737320646f6573206e6f7420657869737400000000600082015250565b60006126be601c83611d45565b91506126c982612688565b602082019050919050565b600060208201905081810360008301526126ed816126b1565b9050919050565b60008190508160005260206000209050919050565b6000815461271681612657565b61272081866125d5565b9450600182166000811461273b576001811461275057612783565b60ff1983168652811515820286019350612783565b612759856126f4565b60005b8381101561277b5781548189015260018201915060208101905061275c565b838801955050505b50505092915050565b60006127988284612709565b915081905092915050565b7f5573657220646f6573206e6f7420657869737400000000000000000000000000600082015250565b60006127d9601383611d45565b91506127e4826127a3565b602082019050919050565b60006020820190508181036000830152612808816127cc565b9050919050565b60006020601f8301049050919050565b600082821b905092915050565b60006008830261285c7fffffffffffffffffffffffffffffffffffffffffffffffffffffffffffffffff8261281f565b612866868361281f565b95508019841693508086168417925050509392505050565b6000819050919050565b60006128a361289e61289984611e10565b61287e565b611e10565b9050919050565b6000819050919050565b6128bd83612888565b6128d16128c9826128aa565b84845461282c565b825550505050565b600090565b6128e66128d9565b6128f18184846128b4565b505050565b5b818110156129155761290a6000826128de565b6001810190506128f7565b5050565b601f82111561295a5761292b816126f4565b6129348461280f565b81016020851015612943578190505b61295761294f8561280f565b8301826128f6565b50505b505050565b600082821c905092915050565b600061297d6000198460080261295f565b1980831691505092915050565b6000612996838361296c565b9150826002028217905092915050565b6129af82611d3a565b67ffffffffffffffff8111156129c8576129c7611bc6565b5b6129d28254612657565b6129dd828285612919565b600060209050601f831160018114612a1057600084156129fe578287015190505b612a08858261298a565b865550612a70565b601f198416612a1e866126f4565b60005b82811015612a4657848901518255600182019150602085019450602081019050612a21565b86831015612a635784890151612a5f601f89168261296c565b8355505b6001600288020188555050505b505050505050565b612a8181611e10565b82525050565b600061014082019050612a9d600083018d612a78565b8181036020830152612aaf818c611d89565b90508181036040830152612ac3818b611d89565b90508181036060830152612ad7818a611d89565b90508181036080830152612aeb8189611d89565b905081810360a0830152612aff8188611d89565b905081810360c0830152612b138187611d89565b905081810360e0830152612b278186611d89565b9050612b37610100830185612a78565b818103610120830152612b4a8184611d89565b90509b9a5050505050505050505050565b7f54656e64657220696420646f6573206e6f742065786973740000000000000000600082015250565b6000612b91601883611d45565b9150612b9c82612b5b565b602082019050919050565b60006020820190508181036000830152612bc081612b84565b9050919050565b7f4e487b7100000000000000000000000000000000000000000000000000000000600052603260045260246000fd5b7f4e487b7100000000000000000000000000000000000000000000000000000000600052601160045260246000fd5b6000612c3082611e10565b91507fffffffffffffffffffffffffffffffffffffffffffffffffffffffffffffffff8203612c6257612c61612bf6565b5b600182019050919050565b7f5573657220646f6573206e6f74206861766520746869732074656e6465720000600082015250565b6000612ca3601e83611d45565b9150612cae82612c6d565b602082019050919050565b60006020820190508181036000830152612cd281612c96565b9050919050565b7f42696464696e6720616d6f756e74206973206c657373207468616e206d696e6960008201527f6d756d2062696464696e67207072696365000000000000000000000000000000602082015250565b6000612d35603183611d45565b9150612d4082612cd9565b604082019050919050565b60006020820190508181036000830152612d6481612d28565b9050919050565b7f456d61696c20697320616c7265616479207265676973746572656420666f722060008201527f7468697320636f6e747261637400000000000000000000000000000000000000602082015250565b6000612dc7602d83611d45565b9150612dd282612d6b565b604082019050919050565b60006020820190508181036000830152612df681612dba565b9050919050565b600060a082019050612e126000830188612a78565b8181036020830152612e248187611d89565b90508181036040830152612e388186611d89565b9050612e476060830185612a78565b8181036080830152612e598184611d89565b90509695505050505050565b7f456d61696c206164647265737320616c72656164792065786973747300000000600082015250565b6000612e9b601c83611d45565b9150612ea682612e65565b602082019050919050565b60006020820190508181036000830152612eca81612e8e565b9050919050565b600060a0820190508181036000830152612eeb8188611d89565b90508181036020830152612eff8187611d89565b90508181036040830152612f138186611d89565b90508181036060830152612f278185611d89565b9050612f3660808301846124a4565b969550505050505056fea264697066735822122050114efca7a033ad30dff14485d1575e34620535f5f42503468b9e8138f7c39c64736f6c634300080f0033",
  "linkReferences": {},
  "deployedLinkReferences": {}
}