{
  "_format": "hh-sol-artifact-1",
  "contractName": "DeployerApplication",
  "sourceName": "contracts/TenderChain.sol",
  "abi": [
    {
      "inputs": [],
      "stateMutability": "nonpayable",
      "type": "constructor"
    },
    {
      "anonymous": false,
      "inputs": [
        {
          "indexed": true,
          "internalType": "address",
          "name": "userAddress",
          "type": "address"
        },
        {
          "indexed": false,
          "internalType": "uint256",
          "name": "tenderid",
          "type": "uint256"
        },
        {
          "indexed": false,
          "internalType": "string",
          "name": "title",
          "type": "string"
        },
        {
          "indexed": false,
          "internalType": "string",
          "name": "status",
          "type": "string"
        },
        {
          "indexed": false,
          "internalType": "string",
          "name": "details",
          "type": "string"
        },
        {
          "indexed": false,
          "internalType": "string",
          "name": "deployedTime",
          "type": "string"
        },
        {
          "indexed": false,
          "internalType": "string",
          "name": "startDate",
          "type": "string"
        },
        {
          "indexed": false,
          "internalType": "string",
          "name": "lastDate",
          "type": "string"
        },
        {
          "indexed": false,
          "internalType": "string",
          "name": "bidOpeningDate",
          "type": "string"
        },
        {
          "indexed": false,
          "internalType": "string",
          "name": "organizationName",
          "type": "string"
        }
      ],
      "name": "ContractDeployed",
      "type": "event"
    },
    {
      "anonymous": false,
      "inputs": [
        {
          "indexed": true,
          "internalType": "address",
          "name": "userAddress",
          "type": "address"
        },
        {
          "indexed": false,
          "internalType": "string",
          "name": "name",
          "type": "string"
        },
        {
          "indexed": false,
          "internalType": "string",
          "name": "email",
          "type": "string"
        },
        {
          "indexed": false,
          "internalType": "string",
          "name": "country",
          "type": "string"
        },
        {
          "indexed": false,
          "internalType": "string",
          "name": "phoneNumber",
          "type": "string"
        }
      ],
      "name": "UserAdded",
      "type": "event"
    },
    {
      "inputs": [
        {
          "internalType": "string",
          "name": "_name",
          "type": "string"
        },
        {
          "internalType": "string",
          "name": "_email",
          "type": "string"
        },
        {
          "internalType": "string",
          "name": "_country",
          "type": "string"
        },
        {
          "internalType": "string",
          "name": "_password",
          "type": "string"
        },
        {
          "internalType": "string",
          "name": "_phoneNumber",
          "type": "string"
        }
      ],
      "name": "addUser",
      "outputs": [],
      "stateMutability": "nonpayable",
      "type": "function"
    },
    {
      "inputs": [
        {
          "internalType": "uint256",
          "name": "_tenderid",
          "type": "uint256"
        },
        {
          "internalType": "string",
          "name": "_title",
          "type": "string"
        },
        {
          "internalType": "string",
          "name": "_status",
          "type": "string"
        },
        {
          "internalType": "string",
          "name": "_details",
          "type": "string"
        },
        {
          "internalType": "string",
          "name": "_DeployedTime",
          "type": "string"
        },
        {
          "internalType": "string",
          "name": "_Startdate",
          "type": "string"
        },
        {
          "internalType": "string",
          "name": "_Lastdate",
          "type": "string"
        },
        {
          "internalType": "string",
          "name": "_BidopeningDate",
          "type": "string"
        },
        {
          "internalType": "string",
          "name": "_OrganizationName",
          "type": "string"
        }
      ],
      "name": "deployContract",
      "outputs": [],
      "stateMutability": "nonpayable",
      "type": "function"
    },
    {
      "inputs": [
        {
          "internalType": "string",
          "name": "_email",
          "type": "string"
        }
      ],
      "name": "getAddress",
      "outputs": [
        {
          "internalType": "address",
          "name": "",
          "type": "address"
        }
      ],
      "stateMutability": "view",
      "type": "function"
    },
    {
      "inputs": [
        {
          "internalType": "address",
          "name": "_userAddress",
          "type": "address"
        }
      ],
      "name": "getMemo",
      "outputs": [
        {
          "internalType": "uint256",
          "name": "",
          "type": "uint256"
        },
        {
          "internalType": "string",
          "name": "",
          "type": "string"
        },
        {
          "internalType": "string",
          "name": "",
          "type": "string"
        },
        {
          "internalType": "string",
          "name": "",
          "type": "string"
        },
        {
          "internalType": "string",
          "name": "",
          "type": "string"
        },
        {
          "internalType": "string",
          "name": "",
          "type": "string"
        },
        {
          "internalType": "string",
          "name": "",
          "type": "string"
        },
        {
          "internalType": "string",
          "name": "",
          "type": "string"
        },
        {
          "internalType": "string",
          "name": "",
          "type": "string"
        }
      ],
      "stateMutability": "view",
      "type": "function"
    },
    {
      "inputs": [
        {
          "internalType": "string",
          "name": "_email",
          "type": "string"
        }
      ],
      "name": "getPassword",
      "outputs": [
        {
          "internalType": "string",
          "name": "",
          "type": "string"
        }
      ],
      "stateMutability": "view",
      "type": "function"
    },
    {
      "inputs": [],
      "name": "listOfContracts",
      "outputs": [
        {
          "components": [
            {
              "internalType": "uint256",
              "name": "tenderid",
              "type": "uint256"
            },
            {
              "internalType": "string",
              "name": "status",
              "type": "string"
            },
            {
              "internalType": "string",
              "name": "title",
              "type": "string"
            },
            {
              "internalType": "string",
              "name": "details",
              "type": "string"
            },
            {
              "internalType": "string",
              "name": "DeployedTime",
              "type": "string"
            },
            {
              "internalType": "string",
              "name": "Startdate",
              "type": "string"
            },
            {
              "internalType": "string",
              "name": "Lastdate",
              "type": "string"
            },
            {
              "internalType": "string",
              "name": "BidopeningDate",
              "type": "string"
            },
            {
              "internalType": "string",
              "name": "OrganizationName",
              "type": "string"
            }
          ],
          "internalType": "struct DeployerApplication.ListObjects[]",
          "name": "",
          "type": "tuple[]"
        }
      ],
      "stateMutability": "view",
      "type": "function"
    },
    {
      "inputs": [],
      "name": "owner",
      "outputs": [
        {
          "internalType": "address payable",
          "name": "",
          "type": "address"
        }
      ],
      "stateMutability": "view",
      "type": "function"
    }
  ],
  "bytecode": "0x608060405234801561001057600080fd5b50336000806101000a81548173ffffffffffffffffffffffffffffffffffffffff021916908373ffffffffffffffffffffffffffffffffffffffff160217905550612634806100606000396000f3fe608060405234801561001057600080fd5b506004361061007d5760003560e01c8063b37a3d821161005b578063b37a3d82146100ec578063bf40fac114610108578063d57230f714610138578063fd16c512146101565761007d565b806301b8c31c146100825780631f1ab369146100b25780638da5cb5b146100ce575b600080fd5b61009c600480360381019061009791906118c4565b61018e565b6040516100a99190611995565b60405180910390f35b6100cc60048036038101906100c791906119ed565b61023e565b005b6100d661076c565b6040516100e39190611bd8565b60405180910390f35b61010660048036038101906101019190611bf3565b610790565b005b610122600480360381019061011d91906118c4565b610a3a565b60405161012f9190611d1b565b60405180910390f35b610140610a82565b60405161014d9190611f47565b60405180910390f35b610170600480360381019061016b9190611f95565b610f7c565b60405161018599989796959493929190611fd1565b60405180910390f35b60606002826040516101a091906120d2565b908152602001604051809103902080546101b990612118565b80601f01602080910402602001604051908101604052809291908181526020018280546101e590612118565b80156102325780601f1061020757610100808354040283529160200191610232565b820191906000526020600020905b81548152906001019060200180831161021557829003601f168201915b50505050509050919050565b600660003373ffffffffffffffffffffffffffffffffffffffff1673ffffffffffffffffffffffffffffffffffffffff16815260200190815260200160002060009054906101000a900460ff166102ca576040517f08c379a00000000000000000000000000000000000000000000000000000000081526004016102c190612195565b60405180910390fd5b3373ffffffffffffffffffffffffffffffffffffffff1660008054906101000a900473ffffffffffffffffffffffffffffffffffffffff1673ffffffffffffffffffffffffffffffffffffffff16036107615788600360003373ffffffffffffffffffffffffffffffffffffffff1673ffffffffffffffffffffffffffffffffffffffff1681526020019081526020016000206000018190555087600360003373ffffffffffffffffffffffffffffffffffffffff1673ffffffffffffffffffffffffffffffffffffffff16815260200190815260200160002060020190816103b39190612361565b5086600360003373ffffffffffffffffffffffffffffffffffffffff1673ffffffffffffffffffffffffffffffffffffffff16815260200190815260200160002060010190816104039190612361565b5085600360003373ffffffffffffffffffffffffffffffffffffffff1673ffffffffffffffffffffffffffffffffffffffff16815260200190815260200160002060030190816104539190612361565b5084600360003373ffffffffffffffffffffffffffffffffffffffff1673ffffffffffffffffffffffffffffffffffffffff16815260200190815260200160002060040190816104a39190612361565b5083600360003373ffffffffffffffffffffffffffffffffffffffff1673ffffffffffffffffffffffffffffffffffffffff16815260200190815260200160002060050190816104f39190612361565b5082600360003373ffffffffffffffffffffffffffffffffffffffff1673ffffffffffffffffffffffffffffffffffffffff16815260200190815260200160002060060190816105439190612361565b5081600360003373ffffffffffffffffffffffffffffffffffffffff1673ffffffffffffffffffffffffffffffffffffffff16815260200190815260200160002060070190816105939190612361565b5080600360003373ffffffffffffffffffffffffffffffffffffffff1673ffffffffffffffffffffffffffffffffffffffff16815260200190815260200160002060080190816105e39190612361565b506004600360003373ffffffffffffffffffffffffffffffffffffffff1673ffffffffffffffffffffffffffffffffffffffff1681526020019081526020016000209080600181540180825580915050600190039060005260206000209060090201600090919091909150600082015481600001556001820181600101908161066c9190612449565b50600282018160020190816106819190612449565b50600382018160030190816106969190612449565b50600482018160040190816106ab9190612449565b50600582018160050190816106c09190612449565b50600682018160060190816106d59190612449565b50600782018160070190816106ea9190612449565b50600882018160080190816106ff9190612449565b5050503373ffffffffffffffffffffffffffffffffffffffff167fa8f1c704eb0dbcb155b1969b6f680cd515f5abb0586089a43475c8fc456d62578a8a8a8a8a8a8a8a8a60405161075899989796959493929190611fd1565b60405180910390a25b505050505050505050565b60008054906101000a900473ffffffffffffffffffffffffffffffffffffffff1681565b600073ffffffffffffffffffffffffffffffffffffffff166001856040516107b891906120d2565b908152602001604051809103902060009054906101000a900473ffffffffffffffffffffffffffffffffffffffff1673ffffffffffffffffffffffffffffffffffffffff161461083d576040517f08c379a00000000000000000000000000000000000000000000000000000000081526004016108349061257d565b60405180910390fd5b6000339050604051806080016040528087815260200186815260200185815260200183815250600560008373ffffffffffffffffffffffffffffffffffffffff1673ffffffffffffffffffffffffffffffffffffffff16815260200190815260200160002060008201518160000190816108b79190612361565b5060208201518160010190816108cd9190612361565b5060408201518160020190816108e39190612361565b5060608201518160030190816108f99190612361565b509050508060018660405161090e91906120d2565b908152602001604051809103902060006101000a81548173ffffffffffffffffffffffffffffffffffffffff021916908373ffffffffffffffffffffffffffffffffffffffff1602179055506001600660008373ffffffffffffffffffffffffffffffffffffffff1673ffffffffffffffffffffffffffffffffffffffff16815260200190815260200160002060006101000a81548160ff021916908315150217905550826002866040516109c391906120d2565b908152602001604051809103902090816109dd9190612361565b508073ffffffffffffffffffffffffffffffffffffffff167f10bb073e1ce0977d8bf7b641de8a59b02dd9c9d1c4badc9b30e5a48ac9fc8cb987878786604051610a2a949392919061259d565b60405180910390a2505050505050565b6000600182604051610a4c91906120d2565b908152602001604051809103902060009054906101000a900473ffffffffffffffffffffffffffffffffffffffff169050919050565b60606004805480602002602001604051908101604052809291908181526020016000905b82821015610f7357838290600052602060002090600902016040518061012001604052908160008201548152602001600182018054610ae490612118565b80601f0160208091040260200160405190810160405280929190818152602001828054610b1090612118565b8015610b5d5780601f10610b3257610100808354040283529160200191610b5d565b820191906000526020600020905b815481529060010190602001808311610b4057829003601f168201915b50505050508152602001600282018054610b7690612118565b80601f0160208091040260200160405190810160405280929190818152602001828054610ba290612118565b8015610bef5780601f10610bc457610100808354040283529160200191610bef565b820191906000526020600020905b815481529060010190602001808311610bd257829003601f168201915b50505050508152602001600382018054610c0890612118565b80601f0160208091040260200160405190810160405280929190818152602001828054610c3490612118565b8015610c815780601f10610c5657610100808354040283529160200191610c81565b820191906000526020600020905b815481529060010190602001808311610c6457829003601f168201915b50505050508152602001600482018054610c9a90612118565b80601f0160208091040260200160405190810160405280929190818152602001828054610cc690612118565b8015610d135780601f10610ce857610100808354040283529160200191610d13565b820191906000526020600020905b815481529060010190602001808311610cf657829003601f168201915b50505050508152602001600582018054610d2c90612118565b80601f0160208091040260200160405190810160405280929190818152602001828054610d5890612118565b8015610da55780601f10610d7a57610100808354040283529160200191610da5565b820191906000526020600020905b815481529060010190602001808311610d8857829003601f168201915b50505050508152602001600682018054610dbe90612118565b80601f0160208091040260200160405190810160405280929190818152602001828054610dea90612118565b8015610e375780601f10610e0c57610100808354040283529160200191610e37565b820191906000526020600020905b815481529060010190602001808311610e1a57829003601f168201915b50505050508152602001600782018054610e5090612118565b80601f0160208091040260200160405190810160405280929190818152602001828054610e7c90612118565b8015610ec95780601f10610e9e57610100808354040283529160200191610ec9565b820191906000526020600020905b815481529060010190602001808311610eac57829003601f168201915b50505050508152602001600882018054610ee290612118565b80601f0160208091040260200160405190810160405280929190818152602001828054610f0e90612118565b8015610f5b5780601f10610f3057610100808354040283529160200191610f5b565b820191906000526020600020905b815481529060010190602001808311610f3e57829003601f168201915b50505050508152505081526020019060010190610aa6565b50505050905090565b6000606080606080606080606080600660008b73ffffffffffffffffffffffffffffffffffffffff1673ffffffffffffffffffffffffffffffffffffffff16815260200190815260200160002060009054906101000a900460ff16611016576040517f08c379a000000000000000000000000000000000000000000000000000000000815260040161100d90612195565b60405180910390fd5b8973ffffffffffffffffffffffffffffffffffffffff1660008054906101000a900473ffffffffffffffffffffffffffffffffffffffff1673ffffffffffffffffffffffffffffffffffffffff1603611598576000600360008c73ffffffffffffffffffffffffffffffffffffffff1673ffffffffffffffffffffffffffffffffffffffff16815260200190815260200160002060405180610120016040529081600082015481526020016001820180546110d090612118565b80601f01602080910402602001604051908101604052809291908181526020018280546110fc90612118565b80156111495780601f1061111e57610100808354040283529160200191611149565b820191906000526020600020905b81548152906001019060200180831161112c57829003601f168201915b5050505050815260200160028201805461116290612118565b80601f016020809104026020016040519081016040528092919081815260200182805461118e90612118565b80156111db5780601f106111b0576101008083540402835291602001916111db565b820191906000526020600020905b8154815290600101906020018083116111be57829003601f168201915b505050505081526020016003820180546111f490612118565b80601f016020809104026020016040519081016040528092919081815260200182805461122090612118565b801561126d5780601f106112425761010080835404028352916020019161126d565b820191906000526020600020905b81548152906001019060200180831161125057829003601f168201915b5050505050815260200160048201805461128690612118565b80601f01602080910402602001604051908101604052809291908181526020018280546112b290612118565b80156112ff5780601f106112d4576101008083540402835291602001916112ff565b820191906000526020600020905b8154815290600101906020018083116112e257829003601f168201915b5050505050815260200160058201805461131890612118565b80601f016020809104026020016040519081016040528092919081815260200182805461134490612118565b80156113915780601f1061136657610100808354040283529160200191611391565b820191906000526020600020905b81548152906001019060200180831161137457829003601f168201915b505050505081526020016006820180546113aa90612118565b80601f01602080910402602001604051908101604052809291908181526020018280546113d690612118565b80156114235780601f106113f857610100808354040283529160200191611423565b820191906000526020600020905b81548152906001019060200180831161140657829003601f168201915b5050505050815260200160078201805461143c90612118565b80601f016020809104026020016040519081016040528092919081815260200182805461146890612118565b80156114b55780601f1061148a576101008083540402835291602001916114b5565b820191906000526020600020905b81548152906001019060200180831161149857829003601f168201915b505050505081526020016008820180546114ce90612118565b80601f01602080910402602001604051908101604052809291908181526020018280546114fa90612118565b80156115475780601f1061151c57610100808354040283529160200191611547565b820191906000526020600020905b81548152906001019060200180831161152a57829003601f168201915b5050505050815250509050806000015181602001518260400151836060015184608001518560a001518660c001518760e001518861010001519950995099509950995099509950995099505061175d565b60006040518060400160405280600481526020017f4e6f6e65000000000000000000000000000000000000000000000000000000008152506040518060400160405280600481526020017f4e6f6e65000000000000000000000000000000000000000000000000000000008152506040518060400160405280600481526020017f4e6f6e65000000000000000000000000000000000000000000000000000000008152506040518060400160405280600481526020017f4e6f6e65000000000000000000000000000000000000000000000000000000008152506040518060400160405280600481526020017f4e6f6e65000000000000000000000000000000000000000000000000000000008152506040518060400160405280600481526020017f4e6f6e65000000000000000000000000000000000000000000000000000000008152506040518060400160405280600481526020017f4e6f6e65000000000000000000000000000000000000000000000000000000008152506040518060400160405280600481526020017f4e6f6e65000000000000000000000000000000000000000000000000000000008152509850985098509850985098509850985098505b9193959799909294969850565b6000604051905090565b600080fd5b600080fd5b600080fd5b600080fd5b6000601f19601f8301169050919050565b7f4e487b7100000000000000000000000000000000000000000000000000000000600052604160045260246000fd5b6117d182611788565b810181811067ffffffffffffffff821117156117f0576117ef611799565b5b80604052505050565b600061180361176a565b905061180f82826117c8565b919050565b600067ffffffffffffffff82111561182f5761182e611799565b5b61183882611788565b9050602081019050919050565b82818337600083830152505050565b600061186761186284611814565b6117f9565b90508281526020810184848401111561188357611882611783565b5b61188e848285611845565b509392505050565b600082601f8301126118ab576118aa61177e565b5b81356118bb848260208601611854565b91505092915050565b6000602082840312156118da576118d9611774565b5b600082013567ffffffffffffffff8111156118f8576118f7611779565b5b61190484828501611896565b91505092915050565b600081519050919050565b600082825260208201905092915050565b60005b8381101561194757808201518184015260208101905061192c565b83811115611956576000848401525b50505050565b60006119678261190d565b6119718185611918565b9350611981818560208601611929565b61198a81611788565b840191505092915050565b600060208201905081810360008301526119af818461195c565b905092915050565b6000819050919050565b6119ca816119b7565b81146119d557600080fd5b50565b6000813590506119e7816119c1565b92915050565b60008060008060008060008060006101208a8c031215611a1057611a0f611774565b5b6000611a1e8c828d016119d8565b99505060208a013567ffffffffffffffff811115611a3f57611a3e611779565b5b611a4b8c828d01611896565b98505060408a013567ffffffffffffffff811115611a6c57611a6b611779565b5b611a788c828d01611896565b97505060608a013567ffffffffffffffff811115611a9957611a98611779565b5b611aa58c828d01611896565b96505060808a013567ffffffffffffffff811115611ac657611ac5611779565b5b611ad28c828d01611896565b95505060a08a013567ffffffffffffffff811115611af357611af2611779565b5b611aff8c828d01611896565b94505060c08a013567ffffffffffffffff811115611b2057611b1f611779565b5b611b2c8c828d01611896565b93505060e08a013567ffffffffffffffff811115611b4d57611b4c611779565b5b611b598c828d01611896565b9250506101008a013567ffffffffffffffff811115611b7b57611b7a611779565b5b611b878c828d01611896565b9150509295985092959850929598565b600073ffffffffffffffffffffffffffffffffffffffff82169050919050565b6000611bc282611b97565b9050919050565b611bd281611bb7565b82525050565b6000602082019050611bed6000830184611bc9565b92915050565b600080600080600060a08688031215611c0f57611c0e611774565b5b600086013567ffffffffffffffff811115611c2d57611c2c611779565b5b611c3988828901611896565b955050602086013567ffffffffffffffff811115611c5a57611c59611779565b5b611c6688828901611896565b945050604086013567ffffffffffffffff811115611c8757611c86611779565b5b611c9388828901611896565b935050606086013567ffffffffffffffff811115611cb457611cb3611779565b5b611cc088828901611896565b925050608086013567ffffffffffffffff811115611ce157611ce0611779565b5b611ced88828901611896565b9150509295509295909350565b6000611d0582611b97565b9050919050565b611d1581611cfa565b82525050565b6000602082019050611d306000830184611d0c565b92915050565b600081519050919050565b600082825260208201905092915050565b6000819050602082019050919050565b611d6b816119b7565b82525050565b600082825260208201905092915050565b6000611d8d8261190d565b611d978185611d71565b9350611da7818560208601611929565b611db081611788565b840191505092915050565b600061012083016000830151611dd46000860182611d62565b5060208301518482036020860152611dec8282611d82565b91505060408301518482036040860152611e068282611d82565b91505060608301518482036060860152611e208282611d82565b91505060808301518482036080860152611e3a8282611d82565b91505060a083015184820360a0860152611e548282611d82565b91505060c083015184820360c0860152611e6e8282611d82565b91505060e083015184820360e0860152611e888282611d82565b915050610100830151848203610100860152611ea48282611d82565b9150508091505092915050565b6000611ebd8383611dbb565b905092915050565b6000602082019050919050565b6000611edd82611d36565b611ee78185611d41565b935083602082028501611ef985611d52565b8060005b85811015611f355784840389528151611f168582611eb1565b9450611f2183611ec5565b925060208a01995050600181019050611efd565b50829750879550505050505092915050565b60006020820190508181036000830152611f618184611ed2565b905092915050565b611f7281611cfa565b8114611f7d57600080fd5b50565b600081359050611f8f81611f69565b92915050565b600060208284031215611fab57611faa611774565b5b6000611fb984828501611f80565b91505092915050565b611fcb816119b7565b82525050565b600061012082019050611fe7600083018c611fc2565b8181036020830152611ff9818b61195c565b9050818103604083015261200d818a61195c565b90508181036060830152612021818961195c565b90508181036080830152612035818861195c565b905081810360a0830152612049818761195c565b905081810360c083015261205d818661195c565b905081810360e0830152612071818561195c565b9050818103610100830152612086818461195c565b90509a9950505050505050505050565b600081905092915050565b60006120ac8261190d565b6120b68185612096565b93506120c6818560208601611929565b80840191505092915050565b60006120de82846120a1565b915081905092915050565b7f4e487b7100000000000000000000000000000000000000000000000000000000600052602260045260246000fd5b6000600282049050600182168061213057607f821691505b602082108103612143576121426120e9565b5b50919050565b7f5573657220646f6573206e6f7420657869737400000000000000000000000000600082015250565b600061217f601383611918565b915061218a82612149565b602082019050919050565b600060208201905081810360008301526121ae81612172565b9050919050565b60008190508160005260206000209050919050565b60006020601f8301049050919050565b600082821b905092915050565b6000600883026122177fffffffffffffffffffffffffffffffffffffffffffffffffffffffffffffffff826121da565b61222186836121da565b95508019841693508086168417925050509392505050565b6000819050919050565b600061225e612259612254846119b7565b612239565b6119b7565b9050919050565b6000819050919050565b61227883612243565b61228c61228482612265565b8484546121e7565b825550505050565b600090565b6122a1612294565b6122ac81848461226f565b505050565b5b818110156122d0576122c5600082612299565b6001810190506122b2565b5050565b601f821115612315576122e6816121b5565b6122ef846121ca565b810160208510156122fe578190505b61231261230a856121ca565b8301826122b1565b50505b505050565b600082821c905092915050565b60006123386000198460080261231a565b1980831691505092915050565b60006123518383612327565b9150826002028217905092915050565b61236a8261190d565b67ffffffffffffffff81111561238357612382611799565b5b61238d8254612118565b6123988282856122d4565b600060209050601f8311600181146123cb57600084156123b9578287015190505b6123c38582612345565b86555061242b565b601f1984166123d9866121b5565b60005b82811015612401578489015182556001820191506020850194506020810190506123dc565b8683101561241e578489015161241a601f891682612327565b8355505b6001600288020188555050505b505050505050565b60008154905061244281612118565b9050919050565b81810361245757505061252f565b61246082612433565b67ffffffffffffffff81111561247957612478611799565b5b6124838254612118565b61248e8282856122d4565b6000601f8311600181146124bd57600084156124ab578287015490505b6124b58582612345565b865550612528565b601f1984166124cb876121b5565b96506124d6866121b5565b60005b828110156124fe578489015482556001820191506001850194506020810190506124d9565b8683101561251b5784890154612517601f891682612327565b8355505b6001600288020188555050505b5050505050505b565b7f456d61696c206164647265737320616c72656164792065786973747300000000600082015250565b6000612567601c83611918565b915061257282612531565b602082019050919050565b600060208201905081810360008301526125968161255a565b9050919050565b600060808201905081810360008301526125b7818761195c565b905081810360208301526125cb818661195c565b905081810360408301526125df818561195c565b905081810360608301526125f3818461195c565b90509594505050505056fea2646970667358221220dd8a4ff3a91662d5032250dbf4171901af6488ea63b7ff9bbe2f1b486a54a4d064736f6c634300080f0033",
  "linkReferences": {},
  "deployedLinkReferences": {}
}