{
  "_format": "hh-sol-artifact-1",
  "contractName": "DeployerApplication",
  "sourceName": "contracts/TenderChain.sol",
  "abi": [
    {
      "anonymous": false,
      "inputs": [
        {
          "indexed": true,
          "internalType": "string",
          "name": "UserEmail",
          "type": "string"
        },
        {
          "indexed": false,
          "internalType": "uint256",
          "name": "tenderid",
          "type": "uint256"
        },
        {
          "indexed": false,
          "internalType": "string",
          "name": "title",
          "type": "string"
        },
        {
          "indexed": false,
          "internalType": "string",
          "name": "status",
          "type": "string"
        },
        {
          "indexed": false,
          "internalType": "string",
          "name": "details",
          "type": "string"
        },
        {
          "indexed": false,
          "internalType": "string",
          "name": "deployedTime",
          "type": "string"
        },
        {
          "indexed": false,
          "internalType": "string",
          "name": "startDate",
          "type": "string"
        },
        {
          "indexed": false,
          "internalType": "string",
          "name": "lastDate",
          "type": "string"
        },
        {
          "indexed": false,
          "internalType": "string",
          "name": "bidOpeningDate",
          "type": "string"
        },
        {
          "indexed": false,
          "internalType": "string",
          "name": "organizationName",
          "type": "string"
        }
      ],
      "name": "ContractDeployed",
      "type": "event"
    },
    {
      "anonymous": false,
      "inputs": [
        {
          "indexed": true,
          "internalType": "address",
          "name": "userAddress",
          "type": "address"
        },
        {
          "indexed": false,
          "internalType": "string",
          "name": "name",
          "type": "string"
        },
        {
          "indexed": false,
          "internalType": "string",
          "name": "email",
          "type": "string"
        },
        {
          "indexed": false,
          "internalType": "string",
          "name": "country",
          "type": "string"
        },
        {
          "indexed": false,
          "internalType": "string",
          "name": "phoneNumber",
          "type": "string"
        },
        {
          "indexed": false,
          "internalType": "address",
          "name": "HashofUser",
          "type": "address"
        }
      ],
      "name": "UserAdded",
      "type": "event"
    },
    {
      "inputs": [
        {
          "internalType": "string",
          "name": "_name",
          "type": "string"
        },
        {
          "internalType": "string",
          "name": "_email",
          "type": "string"
        },
        {
          "internalType": "string",
          "name": "_country",
          "type": "string"
        },
        {
          "internalType": "string",
          "name": "_password",
          "type": "string"
        },
        {
          "internalType": "string",
          "name": "_phoneNumber",
          "type": "string"
        }
      ],
      "name": "addUser",
      "outputs": [],
      "stateMutability": "nonpayable",
      "type": "function"
    },
    {
      "inputs": [
        {
          "internalType": "uint256",
          "name": "_tenderid",
          "type": "uint256"
        },
        {
          "internalType": "string",
          "name": "_title",
          "type": "string"
        },
        {
          "internalType": "string",
          "name": "_status",
          "type": "string"
        },
        {
          "internalType": "string",
          "name": "_details",
          "type": "string"
        },
        {
          "internalType": "string",
          "name": "_DeployedTime",
          "type": "string"
        },
        {
          "internalType": "string",
          "name": "_Startdate",
          "type": "string"
        },
        {
          "internalType": "string",
          "name": "_Lastdate",
          "type": "string"
        },
        {
          "internalType": "string",
          "name": "_BidopeningDate",
          "type": "string"
        },
        {
          "internalType": "string",
          "name": "_OrganizationName",
          "type": "string"
        }
      ],
      "name": "deployContract",
      "outputs": [],
      "stateMutability": "nonpayable",
      "type": "function"
    },
    {
      "inputs": [
        {
          "internalType": "string",
          "name": "_email",
          "type": "string"
        }
      ],
      "name": "getAddress",
      "outputs": [
        {
          "internalType": "address",
          "name": "",
          "type": "address"
        }
      ],
      "stateMutability": "view",
      "type": "function"
    },
    {
      "inputs": [
        {
          "internalType": "string",
          "name": "_email",
          "type": "string"
        }
      ],
      "name": "getMemo",
      "outputs": [
        {
          "components": [
            {
              "internalType": "uint256",
              "name": "tenderid",
              "type": "uint256"
            },
            {
              "internalType": "string",
              "name": "status",
              "type": "string"
            },
            {
              "internalType": "string",
              "name": "title",
              "type": "string"
            },
            {
              "internalType": "string",
              "name": "details",
              "type": "string"
            },
            {
              "internalType": "string",
              "name": "DeployedTime",
              "type": "string"
            },
            {
              "internalType": "string",
              "name": "Startdate",
              "type": "string"
            },
            {
              "internalType": "string",
              "name": "Lastdate",
              "type": "string"
            },
            {
              "internalType": "string",
              "name": "BidopeningDate",
              "type": "string"
            },
            {
              "internalType": "string",
              "name": "OrganizationName",
              "type": "string"
            }
          ],
          "internalType": "struct DeployerApplication.ListObjects[]",
          "name": "",
          "type": "tuple[]"
        }
      ],
      "stateMutability": "view",
      "type": "function"
    },
    {
      "inputs": [
        {
          "internalType": "string",
          "name": "_email",
          "type": "string"
        }
      ],
      "name": "getPassword",
      "outputs": [
        {
          "internalType": "string",
          "name": "",
          "type": "string"
        }
      ],
      "stateMutability": "view",
      "type": "function"
    },
    {
      "inputs": [],
      "name": "listOfContracts",
      "outputs": [
        {
          "components": [
            {
              "internalType": "uint256",
              "name": "tenderid",
              "type": "uint256"
            },
            {
              "internalType": "string",
              "name": "status",
              "type": "string"
            },
            {
              "internalType": "string",
              "name": "title",
              "type": "string"
            },
            {
              "internalType": "string",
              "name": "details",
              "type": "string"
            },
            {
              "internalType": "string",
              "name": "DeployedTime",
              "type": "string"
            },
            {
              "internalType": "string",
              "name": "Startdate",
              "type": "string"
            },
            {
              "internalType": "string",
              "name": "Lastdate",
              "type": "string"
            },
            {
              "internalType": "string",
              "name": "BidopeningDate",
              "type": "string"
            },
            {
              "internalType": "string",
              "name": "OrganizationName",
              "type": "string"
            }
          ],
          "internalType": "struct DeployerApplication.ListObjects[]",
          "name": "",
          "type": "tuple[]"
        }
      ],
      "stateMutability": "view",
      "type": "function"
    }
  ],
  "bytecode": "0x608060405234801561001057600080fd5b506122b6806100206000396000f3fe608060405234801561001057600080fd5b50600436106100625760003560e01c806301b8c31c146100675780631f1ab36914610097578063216d90c2146100b3578063b37a3d82146100e3578063bf40fac1146100ff578063d57230f71461012f575b600080fd5b610081600480360381019061007c91906115c5565b61014d565b60405161008e9190611696565b60405180910390f35b6100b160048036038101906100ac91906116ee565b6101fd565b005b6100cd60048036038101906100c891906115c5565b610656565b6040516100da9190611aa9565b60405180910390f35b6100fd60048036038101906100f89190611acb565b610c1b565b005b610119600480360381019061011491906115c5565b610f2a565b6040516101269190611c13565b60405180910390f35b610137610f71565b6040516101449190611aa9565b60405180910390f35b606060018260405161015f9190611c6a565b9081526020016040518091039020805461017890611cb0565b80601f01602080910402602001604051908101604052809291908181526020018280546101a490611cb0565b80156101f15780601f106101c6576101008083540402835291602001916101f1565b820191906000526020600020905b8154815290600101906020018083116101d457829003601f168201915b50505050509050919050565b600073ffffffffffffffffffffffffffffffffffffffff166000600460003373ffffffffffffffffffffffffffffffffffffffff1673ffffffffffffffffffffffffffffffffffffffff1681526020019081526020016000206001016040516102669190611d79565b908152602001604051809103902060009054906101000a900473ffffffffffffffffffffffffffffffffffffffff1673ffffffffffffffffffffffffffffffffffffffff16036102eb576040517f08c379a00000000000000000000000000000000000000000000000000000000081526004016102e290611ddc565b60405180910390fd5b6000600460003373ffffffffffffffffffffffffffffffffffffffff1673ffffffffffffffffffffffffffffffffffffffff168152602001908152602001600020600101805461033a90611cb0565b80601f016020809104026020016040519081016040528092919081815260200182805461036690611cb0565b80156103b35780601f10610388576101008083540402835291602001916103b3565b820191906000526020600020905b81548152906001019060200180831161039657829003601f168201915b5050505050905060006040518061012001604052808c81526020018a81526020018b815260200189815260200188815260200187815260200186815260200185815260200184815250905060028260405161040e9190611c6a565b90815260200160405180910390208190806001815401808255809150506001900390600052602060002090600902016000909190919091506000820151816000015560208201518160010190816104659190611f93565b50604082015181600201908161047b9190611f93565b5060608201518160030190816104919190611f93565b5060808201518160040190816104a79190611f93565b5060a08201518160050190816104bd9190611f93565b5060c08201518160060190816104d39190611f93565b5060e08201518160070190816104e99190611f93565b506101008201518160080190816105009190611f93565b505050600381908060018154018082558091505060019003906000526020600020906009020160009091909190915060008201518160000155602082015181600101908161054e9190611f93565b5060408201518160020190816105649190611f93565b50606082015181600301908161057a9190611f93565b5060808201518160040190816105909190611f93565b5060a08201518160050190816105a69190611f93565b5060c08201518160060190816105bc9190611f93565b5060e08201518160070190816105d29190611f93565b506101008201518160080190816105e99190611f93565b505050816040516105fa9190611c6a565b60405180910390207fcec69f816a4626c112595c7c176016a36df1f7614b6f1b3d6d2973f414a89c9e8c8c8c8c8c8c8c8c8c60405161064199989796959493929190612074565b60405180910390a25050505050505050505050565b6060600073ffffffffffffffffffffffffffffffffffffffff166000836040516106809190611c6a565b908152602001604051809103902060009054906101000a900473ffffffffffffffffffffffffffffffffffffffff1673ffffffffffffffffffffffffffffffffffffffff1603610705576040517f08c379a00000000000000000000000000000000000000000000000000000000081526004016106fc90612185565b60405180910390fd5b6002826040516107159190611c6a565b9081526020016040518091039020805480602002602001604051908101604052809291908181526020016000905b82821015610c105783829060005260206000209060090201604051806101200160405290816000820154815260200160018201805461078190611cb0565b80601f01602080910402602001604051908101604052809291908181526020018280546107ad90611cb0565b80156107fa5780601f106107cf576101008083540402835291602001916107fa565b820191906000526020600020905b8154815290600101906020018083116107dd57829003601f168201915b5050505050815260200160028201805461081390611cb0565b80601f016020809104026020016040519081016040528092919081815260200182805461083f90611cb0565b801561088c5780601f106108615761010080835404028352916020019161088c565b820191906000526020600020905b81548152906001019060200180831161086f57829003601f168201915b505050505081526020016003820180546108a590611cb0565b80601f01602080910402602001604051908101604052809291908181526020018280546108d190611cb0565b801561091e5780601f106108f35761010080835404028352916020019161091e565b820191906000526020600020905b81548152906001019060200180831161090157829003601f168201915b5050505050815260200160048201805461093790611cb0565b80601f016020809104026020016040519081016040528092919081815260200182805461096390611cb0565b80156109b05780601f10610985576101008083540402835291602001916109b0565b820191906000526020600020905b81548152906001019060200180831161099357829003601f168201915b505050505081526020016005820180546109c990611cb0565b80601f01602080910402602001604051908101604052809291908181526020018280546109f590611cb0565b8015610a425780601f10610a1757610100808354040283529160200191610a42565b820191906000526020600020905b815481529060010190602001808311610a2557829003601f168201915b50505050508152602001600682018054610a5b90611cb0565b80601f0160208091040260200160405190810160405280929190818152602001828054610a8790611cb0565b8015610ad45780601f10610aa957610100808354040283529160200191610ad4565b820191906000526020600020905b815481529060010190602001808311610ab757829003601f168201915b50505050508152602001600782018054610aed90611cb0565b80601f0160208091040260200160405190810160405280929190818152602001828054610b1990611cb0565b8015610b665780601f10610b3b57610100808354040283529160200191610b66565b820191906000526020600020905b815481529060010190602001808311610b4957829003601f168201915b50505050508152602001600882018054610b7f90611cb0565b80601f0160208091040260200160405190810160405280929190818152602001828054610bab90611cb0565b8015610bf85780601f10610bcd57610100808354040283529160200191610bf8565b820191906000526020600020905b815481529060010190602001808311610bdb57829003601f168201915b50505050508152505081526020019060010190610743565b505050509050919050565b600073ffffffffffffffffffffffffffffffffffffffff16600085604051610c439190611c6a565b908152602001604051809103902060009054906101000a900473ffffffffffffffffffffffffffffffffffffffff1673ffffffffffffffffffffffffffffffffffffffff1614610cc8576040517f08c379a0000000000000000000000000000000000000000000000000000000008152600401610cbf906121f1565b60405180910390fd5b60003390506040518060a001604052808781526020018681526020018581526020018381526020018273ffffffffffffffffffffffffffffffffffffffff16815250600460008373ffffffffffffffffffffffffffffffffffffffff1673ffffffffffffffffffffffffffffffffffffffff1681526020019081526020016000206000820151816000019081610d5e9190611f93565b506020820151816001019081610d749190611f93565b506040820151816002019081610d8a9190611f93565b506060820151816003019081610da09190611f93565b5060808201518160040160006101000a81548173ffffffffffffffffffffffffffffffffffffffff021916908373ffffffffffffffffffffffffffffffffffffffff16021790555090505080600086604051610dfc9190611c6a565b908152602001604051809103902060006101000a81548173ffffffffffffffffffffffffffffffffffffffff021916908373ffffffffffffffffffffffffffffffffffffffff1602179055506001600560008373ffffffffffffffffffffffffffffffffffffffff1673ffffffffffffffffffffffffffffffffffffffff16815260200190815260200160002060006101000a81548160ff02191690831515021790555082600186604051610eb19190611c6a565b90815260200160405180910390209081610ecb9190611f93565b508073ffffffffffffffffffffffffffffffffffffffff167fedc1c608306a7679c53fde5bc4cd1b1ee13e11f0fa0d9cad68b8e7252c6989a48787878686604051610f1a959493929190612211565b60405180910390a2505050505050565b60008082604051610f3b9190611c6a565b908152602001604051809103902060009054906101000a900473ffffffffffffffffffffffffffffffffffffffff169050919050565b60606003805480602002602001604051908101604052809291908181526020016000905b8282101561146257838290600052602060002090600902016040518061012001604052908160008201548152602001600182018054610fd390611cb0565b80601f0160208091040260200160405190810160405280929190818152602001828054610fff90611cb0565b801561104c5780601f106110215761010080835404028352916020019161104c565b820191906000526020600020905b81548152906001019060200180831161102f57829003601f168201915b5050505050815260200160028201805461106590611cb0565b80601f016020809104026020016040519081016040528092919081815260200182805461109190611cb0565b80156110de5780601f106110b3576101008083540402835291602001916110de565b820191906000526020600020905b8154815290600101906020018083116110c157829003601f168201915b505050505081526020016003820180546110f790611cb0565b80601f016020809104026020016040519081016040528092919081815260200182805461112390611cb0565b80156111705780601f1061114557610100808354040283529160200191611170565b820191906000526020600020905b81548152906001019060200180831161115357829003601f168201915b5050505050815260200160048201805461118990611cb0565b80601f01602080910402602001604051908101604052809291908181526020018280546111b590611cb0565b80156112025780601f106111d757610100808354040283529160200191611202565b820191906000526020600020905b8154815290600101906020018083116111e557829003601f168201915b5050505050815260200160058201805461121b90611cb0565b80601f016020809104026020016040519081016040528092919081815260200182805461124790611cb0565b80156112945780601f1061126957610100808354040283529160200191611294565b820191906000526020600020905b81548152906001019060200180831161127757829003601f168201915b505050505081526020016006820180546112ad90611cb0565b80601f01602080910402602001604051908101604052809291908181526020018280546112d990611cb0565b80156113265780601f106112fb57610100808354040283529160200191611326565b820191906000526020600020905b81548152906001019060200180831161130957829003601f168201915b5050505050815260200160078201805461133f90611cb0565b80601f016020809104026020016040519081016040528092919081815260200182805461136b90611cb0565b80156113b85780601f1061138d576101008083540402835291602001916113b8565b820191906000526020600020905b81548152906001019060200180831161139b57829003601f168201915b505050505081526020016008820180546113d190611cb0565b80601f01602080910402602001604051908101604052809291908181526020018280546113fd90611cb0565b801561144a5780601f1061141f5761010080835404028352916020019161144a565b820191906000526020600020905b81548152906001019060200180831161142d57829003601f168201915b50505050508152505081526020019060010190610f95565b50505050905090565b6000604051905090565b600080fd5b600080fd5b600080fd5b600080fd5b6000601f19601f8301169050919050565b7f4e487b7100000000000000000000000000000000000000000000000000000000600052604160045260246000fd5b6114d282611489565b810181811067ffffffffffffffff821117156114f1576114f061149a565b5b80604052505050565b600061150461146b565b905061151082826114c9565b919050565b600067ffffffffffffffff8211156115305761152f61149a565b5b61153982611489565b9050602081019050919050565b82818337600083830152505050565b600061156861156384611515565b6114fa565b90508281526020810184848401111561158457611583611484565b5b61158f848285611546565b509392505050565b600082601f8301126115ac576115ab61147f565b5b81356115bc848260208601611555565b91505092915050565b6000602082840312156115db576115da611475565b5b600082013567ffffffffffffffff8111156115f9576115f861147a565b5b61160584828501611597565b91505092915050565b600081519050919050565b600082825260208201905092915050565b60005b8381101561164857808201518184015260208101905061162d565b83811115611657576000848401525b50505050565b60006116688261160e565b6116728185611619565b935061168281856020860161162a565b61168b81611489565b840191505092915050565b600060208201905081810360008301526116b0818461165d565b905092915050565b6000819050919050565b6116cb816116b8565b81146116d657600080fd5b50565b6000813590506116e8816116c2565b92915050565b60008060008060008060008060006101208a8c03121561171157611710611475565b5b600061171f8c828d016116d9565b99505060208a013567ffffffffffffffff8111156117405761173f61147a565b5b61174c8c828d01611597565b98505060408a013567ffffffffffffffff81111561176d5761176c61147a565b5b6117798c828d01611597565b97505060608a013567ffffffffffffffff81111561179a5761179961147a565b5b6117a68c828d01611597565b96505060808a013567ffffffffffffffff8111156117c7576117c661147a565b5b6117d38c828d01611597565b95505060a08a013567ffffffffffffffff8111156117f4576117f361147a565b5b6118008c828d01611597565b94505060c08a013567ffffffffffffffff8111156118215761182061147a565b5b61182d8c828d01611597565b93505060e08a013567ffffffffffffffff81111561184e5761184d61147a565b5b61185a8c828d01611597565b9250506101008a013567ffffffffffffffff81111561187c5761187b61147a565b5b6118888c828d01611597565b9150509295985092959850929598565b600081519050919050565b600082825260208201905092915050565b6000819050602082019050919050565b6118cd816116b8565b82525050565b600082825260208201905092915050565b60006118ef8261160e565b6118f981856118d3565b935061190981856020860161162a565b61191281611489565b840191505092915050565b60006101208301600083015161193660008601826118c4565b506020830151848203602086015261194e82826118e4565b9150506040830151848203604086015261196882826118e4565b9150506060830151848203606086015261198282826118e4565b9150506080830151848203608086015261199c82826118e4565b91505060a083015184820360a08601526119b682826118e4565b91505060c083015184820360c08601526119d082826118e4565b91505060e083015184820360e08601526119ea82826118e4565b915050610100830151848203610100860152611a0682826118e4565b9150508091505092915050565b6000611a1f838361191d565b905092915050565b6000602082019050919050565b6000611a3f82611898565b611a4981856118a3565b935083602082028501611a5b856118b4565b8060005b85811015611a975784840389528151611a788582611a13565b9450611a8383611a27565b925060208a01995050600181019050611a5f565b50829750879550505050505092915050565b60006020820190508181036000830152611ac38184611a34565b905092915050565b600080600080600060a08688031215611ae757611ae6611475565b5b600086013567ffffffffffffffff811115611b0557611b0461147a565b5b611b1188828901611597565b955050602086013567ffffffffffffffff811115611b3257611b3161147a565b5b611b3e88828901611597565b945050604086013567ffffffffffffffff811115611b5f57611b5e61147a565b5b611b6b88828901611597565b935050606086013567ffffffffffffffff811115611b8c57611b8b61147a565b5b611b9888828901611597565b925050608086013567ffffffffffffffff811115611bb957611bb861147a565b5b611bc588828901611597565b9150509295509295909350565b600073ffffffffffffffffffffffffffffffffffffffff82169050919050565b6000611bfd82611bd2565b9050919050565b611c0d81611bf2565b82525050565b6000602082019050611c286000830184611c04565b92915050565b600081905092915050565b6000611c448261160e565b611c4e8185611c2e565b9350611c5e81856020860161162a565b80840191505092915050565b6000611c768284611c39565b915081905092915050565b7f4e487b7100000000000000000000000000000000000000000000000000000000600052602260045260246000fd5b60006002820490506001821680611cc857607f821691505b602082108103611cdb57611cda611c81565b5b50919050565b60008190508160005260206000209050919050565b60008154611d0381611cb0565b611d0d8186611c2e565b94506001821660008114611d285760018114611d3d57611d70565b60ff1983168652811515820286019350611d70565b611d4685611ce1565b60005b83811015611d6857815481890152600182019150602081019050611d49565b838801955050505b50505092915050565b6000611d858284611cf6565b915081905092915050565b7f5573657220646f6573206e6f7420657869737400000000000000000000000000600082015250565b6000611dc6601383611619565b9150611dd182611d90565b602082019050919050565b60006020820190508181036000830152611df581611db9565b9050919050565b60006020601f8301049050919050565b600082821b905092915050565b600060088302611e497fffffffffffffffffffffffffffffffffffffffffffffffffffffffffffffffff82611e0c565b611e538683611e0c565b95508019841693508086168417925050509392505050565b6000819050919050565b6000611e90611e8b611e86846116b8565b611e6b565b6116b8565b9050919050565b6000819050919050565b611eaa83611e75565b611ebe611eb682611e97565b848454611e19565b825550505050565b600090565b611ed3611ec6565b611ede818484611ea1565b505050565b5b81811015611f0257611ef7600082611ecb565b600181019050611ee4565b5050565b601f821115611f4757611f1881611ce1565b611f2184611dfc565b81016020851015611f30578190505b611f44611f3c85611dfc565b830182611ee3565b50505b505050565b600082821c905092915050565b6000611f6a60001984600802611f4c565b1980831691505092915050565b6000611f838383611f59565b9150826002028217905092915050565b611f9c8261160e565b67ffffffffffffffff811115611fb557611fb461149a565b5b611fbf8254611cb0565b611fca828285611f06565b600060209050601f831160018114611ffd5760008415611feb578287015190505b611ff58582611f77565b86555061205d565b601f19841661200b86611ce1565b60005b828110156120335784890151825560018201915060208501945060208101905061200e565b86831015612050578489015161204c601f891682611f59565b8355505b6001600288020188555050505b505050505050565b61206e816116b8565b82525050565b60006101208201905061208a600083018c612065565b818103602083015261209c818b61165d565b905081810360408301526120b0818a61165d565b905081810360608301526120c4818961165d565b905081810360808301526120d8818861165d565b905081810360a08301526120ec818761165d565b905081810360c0830152612100818661165d565b905081810360e0830152612114818561165d565b9050818103610100830152612129818461165d565b90509a9950505050505050505050565b7f456d61696c206164647265737320646f6573206e6f7420657869737400000000600082015250565b600061216f601c83611619565b915061217a82612139565b602082019050919050565b6000602082019050818103600083015261219e81612162565b9050919050565b7f456d61696c206164647265737320616c72656164792065786973747300000000600082015250565b60006121db601c83611619565b91506121e6826121a5565b602082019050919050565b6000602082019050818103600083015261220a816121ce565b9050919050565b600060a082019050818103600083015261222b818861165d565b9050818103602083015261223f818761165d565b90508181036040830152612253818661165d565b90508181036060830152612267818561165d565b90506122766080830184611c04565b969550505050505056fea26469706673582212203fa72f27a980e59de9aeba5a3b2b4e76638087fb3aaf2d89b177a7e177b3d69f64736f6c634300080f0033",
  "linkReferences": {},
  "deployedLinkReferences": {}
}