{
  "_format": "hh-sol-artifact-1",
  "contractName": "DeployerApplication",
  "sourceName": "contracts/TenderChain.sol",
  "abi": [
    {
      "inputs": [],
      "stateMutability": "nonpayable",
      "type": "constructor"
    },
    {
      "inputs": [
        {
          "internalType": "uint256",
          "name": "_tenderid",
          "type": "uint256"
        },
        {
          "internalType": "string",
          "name": "_title",
          "type": "string"
        },
        {
          "internalType": "string",
          "name": "_status",
          "type": "string"
        },
        {
          "internalType": "string",
          "name": "_details",
          "type": "string"
        },
        {
          "internalType": "string",
          "name": "_DeployedTime",
          "type": "string"
        },
        {
          "internalType": "string",
          "name": "_Startdate",
          "type": "string"
        },
        {
          "internalType": "string",
          "name": "_Lastdate",
          "type": "string"
        },
        {
          "internalType": "string",
          "name": "_BidopeningDate",
          "type": "string"
        },
        {
          "internalType": "string",
          "name": "_OrgainsationName",
          "type": "string"
        }
      ],
      "name": "DeployContract",
      "outputs": [],
      "stateMutability": "nonpayable",
      "type": "function"
    },
    {
      "inputs": [
        {
          "internalType": "uint256",
          "name": "",
          "type": "uint256"
        }
      ],
      "name": "Memo",
      "outputs": [
        {
          "internalType": "uint256",
          "name": "tenderid",
          "type": "uint256"
        },
        {
          "internalType": "string",
          "name": "status",
          "type": "string"
        },
        {
          "internalType": "string",
          "name": "title",
          "type": "string"
        },
        {
          "internalType": "string",
          "name": "details",
          "type": "string"
        },
        {
          "internalType": "string",
          "name": "DeployedTime",
          "type": "string"
        },
        {
          "internalType": "string",
          "name": "Startdate",
          "type": "string"
        },
        {
          "internalType": "string",
          "name": "Lastdate",
          "type": "string"
        },
        {
          "internalType": "string",
          "name": "BidopeningDate",
          "type": "string"
        },
        {
          "internalType": "string",
          "name": "OrgainsationName",
          "type": "string"
        }
      ],
      "stateMutability": "view",
      "type": "function"
    },
    {
      "inputs": [],
      "name": "getMemo",
      "outputs": [
        {
          "components": [
            {
              "internalType": "uint256",
              "name": "tenderid",
              "type": "uint256"
            },
            {
              "internalType": "string",
              "name": "status",
              "type": "string"
            },
            {
              "internalType": "string",
              "name": "title",
              "type": "string"
            },
            {
              "internalType": "string",
              "name": "details",
              "type": "string"
            },
            {
              "internalType": "string",
              "name": "DeployedTime",
              "type": "string"
            },
            {
              "internalType": "string",
              "name": "Startdate",
              "type": "string"
            },
            {
              "internalType": "string",
              "name": "Lastdate",
              "type": "string"
            },
            {
              "internalType": "string",
              "name": "BidopeningDate",
              "type": "string"
            },
            {
              "internalType": "string",
              "name": "OrgainsationName",
              "type": "string"
            }
          ],
          "internalType": "struct DeployerApplication.TenderObject[]",
          "name": "",
          "type": "tuple[]"
        }
      ],
      "stateMutability": "view",
      "type": "function"
    },
    {
      "inputs": [],
      "name": "owner",
      "outputs": [
        {
          "internalType": "address payable",
          "name": "",
          "type": "address"
        }
      ],
      "stateMutability": "view",
      "type": "function"
    }
  ],
  "bytecode": "0x608060405234801561001057600080fd5b50336000806101000a81548173ffffffffffffffffffffffffffffffffffffffff021916908373ffffffffffffffffffffffffffffffffffffffff16021790555061162d806100606000396000f3fe608060405234801561001057600080fd5b506004361061004c5760003560e01c8063041d32fe146100515780633f4485b51461006d5780638aa7b4b1146100a55780638da5cb5b146100c3575b600080fd5b61006b60048036038101906100669190610d60565b6100e1565b005b61008760048036038101906100829190610f0a565b610214565b60405161009c99989796959493929190610fc5565b60405180910390f35b6100ad6106b2565b6040516100ba919061129b565b60405180910390f35b6100cb610bac565b6040516100d891906112fe565b60405180910390f35b60016040518061012001604052808b81526020018981526020018a815260200188815260200187815260200186815260200185815260200184815260200183815250908060018154018082558091505060019003906000526020600020906009020160009091909190915060008201518160000155602082015181600101908161016b9190611525565b5060408201518160020190816101819190611525565b5060608201518160030190816101979190611525565b5060808201518160040190816101ad9190611525565b5060a08201518160050190816101c39190611525565b5060c08201518160060190816101d99190611525565b5060e08201518160070190816101ef9190611525565b506101008201518160080190816102069190611525565b505050505050505050505050565b6001818154811061022457600080fd5b906000526020600020906009020160009150905080600001549080600101805461024d90611348565b80601f016020809104026020016040519081016040528092919081815260200182805461027990611348565b80156102c65780601f1061029b576101008083540402835291602001916102c6565b820191906000526020600020905b8154815290600101906020018083116102a957829003601f168201915b5050505050908060020180546102db90611348565b80601f016020809104026020016040519081016040528092919081815260200182805461030790611348565b80156103545780601f1061032957610100808354040283529160200191610354565b820191906000526020600020905b81548152906001019060200180831161033757829003601f168201915b50505050509080600301805461036990611348565b80601f016020809104026020016040519081016040528092919081815260200182805461039590611348565b80156103e25780601f106103b7576101008083540402835291602001916103e2565b820191906000526020600020905b8154815290600101906020018083116103c557829003601f168201915b5050505050908060040180546103f790611348565b80601f016020809104026020016040519081016040528092919081815260200182805461042390611348565b80156104705780601f1061044557610100808354040283529160200191610470565b820191906000526020600020905b81548152906001019060200180831161045357829003601f168201915b50505050509080600501805461048590611348565b80601f01602080910402602001604051908101604052809291908181526020018280546104b190611348565b80156104fe5780601f106104d3576101008083540402835291602001916104fe565b820191906000526020600020905b8154815290600101906020018083116104e157829003601f168201915b50505050509080600601805461051390611348565b80601f016020809104026020016040519081016040528092919081815260200182805461053f90611348565b801561058c5780601f106105615761010080835404028352916020019161058c565b820191906000526020600020905b81548152906001019060200180831161056f57829003601f168201915b5050505050908060070180546105a190611348565b80601f01602080910402602001604051908101604052809291908181526020018280546105cd90611348565b801561061a5780601f106105ef5761010080835404028352916020019161061a565b820191906000526020600020905b8154815290600101906020018083116105fd57829003601f168201915b50505050509080600801805461062f90611348565b80601f016020809104026020016040519081016040528092919081815260200182805461065b90611348565b80156106a85780601f1061067d576101008083540402835291602001916106a8565b820191906000526020600020905b81548152906001019060200180831161068b57829003601f168201915b5050505050905089565b60606001805480602002602001604051908101604052809291908181526020016000905b82821015610ba35783829060005260206000209060090201604051806101200160405290816000820154815260200160018201805461071490611348565b80601f016020809104026020016040519081016040528092919081815260200182805461074090611348565b801561078d5780601f106107625761010080835404028352916020019161078d565b820191906000526020600020905b81548152906001019060200180831161077057829003601f168201915b505050505081526020016002820180546107a690611348565b80601f01602080910402602001604051908101604052809291908181526020018280546107d290611348565b801561081f5780601f106107f45761010080835404028352916020019161081f565b820191906000526020600020905b81548152906001019060200180831161080257829003601f168201915b5050505050815260200160038201805461083890611348565b80601f016020809104026020016040519081016040528092919081815260200182805461086490611348565b80156108b15780601f10610886576101008083540402835291602001916108b1565b820191906000526020600020905b81548152906001019060200180831161089457829003601f168201915b505050505081526020016004820180546108ca90611348565b80601f01602080910402602001604051908101604052809291908181526020018280546108f690611348565b80156109435780601f1061091857610100808354040283529160200191610943565b820191906000526020600020905b81548152906001019060200180831161092657829003601f168201915b5050505050815260200160058201805461095c90611348565b80601f016020809104026020016040519081016040528092919081815260200182805461098890611348565b80156109d55780601f106109aa576101008083540402835291602001916109d5565b820191906000526020600020905b8154815290600101906020018083116109b857829003601f168201915b505050505081526020016006820180546109ee90611348565b80601f0160208091040260200160405190810160405280929190818152602001828054610a1a90611348565b8015610a675780601f10610a3c57610100808354040283529160200191610a67565b820191906000526020600020905b815481529060010190602001808311610a4a57829003601f168201915b50505050508152602001600782018054610a8090611348565b80601f0160208091040260200160405190810160405280929190818152602001828054610aac90611348565b8015610af95780601f10610ace57610100808354040283529160200191610af9565b820191906000526020600020905b815481529060010190602001808311610adc57829003601f168201915b50505050508152602001600882018054610b1290611348565b80601f0160208091040260200160405190810160405280929190818152602001828054610b3e90611348565b8015610b8b5780601f10610b6057610100808354040283529160200191610b8b565b820191906000526020600020905b815481529060010190602001808311610b6e57829003601f168201915b505050505081525050815260200190600101906106d6565b50505050905090565b60008054906101000a900473ffffffffffffffffffffffffffffffffffffffff1681565b6000604051905090565b600080fd5b600080fd5b6000819050919050565b610bf781610be4565b8114610c0257600080fd5b50565b600081359050610c1481610bee565b92915050565b600080fd5b600080fd5b6000601f19601f8301169050919050565b7f4e487b7100000000000000000000000000000000000000000000000000000000600052604160045260246000fd5b610c6d82610c24565b810181811067ffffffffffffffff82111715610c8c57610c8b610c35565b5b80604052505050565b6000610c9f610bd0565b9050610cab8282610c64565b919050565b600067ffffffffffffffff821115610ccb57610cca610c35565b5b610cd482610c24565b9050602081019050919050565b82818337600083830152505050565b6000610d03610cfe84610cb0565b610c95565b905082815260208101848484011115610d1f57610d1e610c1f565b5b610d2a848285610ce1565b509392505050565b600082601f830112610d4757610d46610c1a565b5b8135610d57848260208601610cf0565b91505092915050565b60008060008060008060008060006101208a8c031215610d8357610d82610bda565b5b6000610d918c828d01610c05565b99505060208a013567ffffffffffffffff811115610db257610db1610bdf565b5b610dbe8c828d01610d32565b98505060408a013567ffffffffffffffff811115610ddf57610dde610bdf565b5b610deb8c828d01610d32565b97505060608a013567ffffffffffffffff811115610e0c57610e0b610bdf565b5b610e188c828d01610d32565b96505060808a013567ffffffffffffffff811115610e3957610e38610bdf565b5b610e458c828d01610d32565b95505060a08a013567ffffffffffffffff811115610e6657610e65610bdf565b5b610e728c828d01610d32565b94505060c08a013567ffffffffffffffff811115610e9357610e92610bdf565b5b610e9f8c828d01610d32565b93505060e08a013567ffffffffffffffff811115610ec057610ebf610bdf565b5b610ecc8c828d01610d32565b9250506101008a013567ffffffffffffffff811115610eee57610eed610bdf565b5b610efa8c828d01610d32565b9150509295985092959850929598565b600060208284031215610f2057610f1f610bda565b5b6000610f2e84828501610c05565b91505092915050565b610f4081610be4565b82525050565b600081519050919050565b600082825260208201905092915050565b60005b83811015610f80578082015181840152602081019050610f65565b60008484015250505050565b6000610f9782610f46565b610fa18185610f51565b9350610fb1818560208601610f62565b610fba81610c24565b840191505092915050565b600061012082019050610fdb600083018c610f37565b8181036020830152610fed818b610f8c565b90508181036040830152611001818a610f8c565b905081810360608301526110158189610f8c565b905081810360808301526110298188610f8c565b905081810360a083015261103d8187610f8c565b905081810360c08301526110518186610f8c565b905081810360e08301526110658185610f8c565b905081810361010083015261107a8184610f8c565b90509a9950505050505050505050565b600081519050919050565b600082825260208201905092915050565b6000819050602082019050919050565b6110bf81610be4565b82525050565b600082825260208201905092915050565b60006110e182610f46565b6110eb81856110c5565b93506110fb818560208601610f62565b61110481610c24565b840191505092915050565b60006101208301600083015161112860008601826110b6565b506020830151848203602086015261114082826110d6565b9150506040830151848203604086015261115a82826110d6565b9150506060830151848203606086015261117482826110d6565b9150506080830151848203608086015261118e82826110d6565b91505060a083015184820360a08601526111a882826110d6565b91505060c083015184820360c08601526111c282826110d6565b91505060e083015184820360e08601526111dc82826110d6565b9150506101008301518482036101008601526111f882826110d6565b9150508091505092915050565b6000611211838361110f565b905092915050565b6000602082019050919050565b60006112318261108a565b61123b8185611095565b93508360208202850161124d856110a6565b8060005b85811015611289578484038952815161126a8582611205565b945061127583611219565b925060208a01995050600181019050611251565b50829750879550505050505092915050565b600060208201905081810360008301526112b58184611226565b905092915050565b600073ffffffffffffffffffffffffffffffffffffffff82169050919050565b60006112e8826112bd565b9050919050565b6112f8816112dd565b82525050565b600060208201905061131360008301846112ef565b92915050565b7f4e487b7100000000000000000000000000000000000000000000000000000000600052602260045260246000fd5b6000600282049050600182168061136057607f821691505b60208210810361137357611372611319565b5b50919050565b60008190508160005260206000209050919050565b60006020601f8301049050919050565b600082821b905092915050565b6000600883026113db7fffffffffffffffffffffffffffffffffffffffffffffffffffffffffffffffff8261139e565b6113e5868361139e565b95508019841693508086168417925050509392505050565b6000819050919050565b600061142261141d61141884610be4565b6113fd565b610be4565b9050919050565b6000819050919050565b61143c83611407565b61145061144882611429565b8484546113ab565b825550505050565b600090565b611465611458565b611470818484611433565b505050565b5b818110156114945761148960008261145d565b600181019050611476565b5050565b601f8211156114d9576114aa81611379565b6114b38461138e565b810160208510156114c2578190505b6114d66114ce8561138e565b830182611475565b50505b505050565b600082821c905092915050565b60006114fc600019846008026114de565b1980831691505092915050565b600061151583836114eb565b9150826002028217905092915050565b61152e82610f46565b67ffffffffffffffff81111561154757611546610c35565b5b6115518254611348565b61155c828285611498565b600060209050601f83116001811461158f576000841561157d578287015190505b6115878582611509565b8655506115ef565b601f19841661159d86611379565b60005b828110156115c5578489015182556001820191506020850194506020810190506115a0565b868310156115e257848901516115de601f8916826114eb565b8355505b6001600288020188555050505b50505050505056fea2646970667358221220faedd8cc4dae51edde6916d9f5c42d090c9b7ba1ece638ab36504ad8c5dcdc4c64736f6c63430008110033",
  "linkReferences": {},
  "deployedLinkReferences": {}
}