{
  "_format": "hh-sol-artifact-1",
  "contractName": "DeployerApplication",
  "sourceName": "contracts/TenderChain.sol",
  "abi": [
    {
      "inputs": [],
      "stateMutability": "nonpayable",
      "type": "constructor"
    },
    {
      "anonymous": false,
      "inputs": [
        {
          "indexed": true,
          "internalType": "string",
          "name": "UserEmail",
          "type": "string"
        },
        {
          "indexed": false,
          "internalType": "uint256",
          "name": "tenderid",
          "type": "uint256"
        },
        {
          "indexed": false,
          "internalType": "string",
          "name": "title",
          "type": "string"
        },
        {
          "indexed": false,
          "internalType": "string",
          "name": "status",
          "type": "string"
        },
        {
          "indexed": false,
          "internalType": "string",
          "name": "details",
          "type": "string"
        },
        {
          "indexed": false,
          "internalType": "string",
          "name": "deployedTime",
          "type": "string"
        },
        {
          "indexed": false,
          "internalType": "string",
          "name": "startDate",
          "type": "string"
        },
        {
          "indexed": false,
          "internalType": "string",
          "name": "lastDate",
          "type": "string"
        },
        {
          "indexed": false,
          "internalType": "string",
          "name": "bidOpeningDate",
          "type": "string"
        },
        {
          "indexed": false,
          "internalType": "string",
          "name": "organizationName",
          "type": "string"
        }
      ],
      "name": "ContractDeployed",
      "type": "event"
    },
    {
      "anonymous": false,
      "inputs": [
        {
          "indexed": true,
          "internalType": "address",
          "name": "userAddress",
          "type": "address"
        },
        {
          "indexed": false,
          "internalType": "string",
          "name": "name",
          "type": "string"
        },
        {
          "indexed": false,
          "internalType": "string",
          "name": "email",
          "type": "string"
        },
        {
          "indexed": false,
          "internalType": "string",
          "name": "country",
          "type": "string"
        },
        {
          "indexed": false,
          "internalType": "string",
          "name": "phoneNumber",
          "type": "string"
        },
        {
          "indexed": false,
          "internalType": "address",
          "name": "HashofUser",
          "type": "address"
        }
      ],
      "name": "UserAdded",
      "type": "event"
    },
    {
      "inputs": [
        {
          "internalType": "string",
          "name": "_name",
          "type": "string"
        },
        {
          "internalType": "string",
          "name": "_email",
          "type": "string"
        },
        {
          "internalType": "string",
          "name": "_country",
          "type": "string"
        },
        {
          "internalType": "string",
          "name": "_password",
          "type": "string"
        },
        {
          "internalType": "string",
          "name": "_phoneNumber",
          "type": "string"
        }
      ],
      "name": "addUser",
      "outputs": [],
      "stateMutability": "nonpayable",
      "type": "function"
    },
    {
      "inputs": [
        {
          "internalType": "uint256",
          "name": "_tenderid",
          "type": "uint256"
        },
        {
          "internalType": "string",
          "name": "_title",
          "type": "string"
        },
        {
          "internalType": "string",
          "name": "_status",
          "type": "string"
        },
        {
          "internalType": "string",
          "name": "_details",
          "type": "string"
        },
        {
          "internalType": "string",
          "name": "_DeployedTime",
          "type": "string"
        },
        {
          "internalType": "string",
          "name": "_Startdate",
          "type": "string"
        },
        {
          "internalType": "string",
          "name": "_Lastdate",
          "type": "string"
        },
        {
          "internalType": "string",
          "name": "_BidopeningDate",
          "type": "string"
        },
        {
          "internalType": "string",
          "name": "_OrganizationName",
          "type": "string"
        }
      ],
      "name": "deployContract",
      "outputs": [],
      "stateMutability": "nonpayable",
      "type": "function"
    },
    {
      "inputs": [
        {
          "internalType": "string",
          "name": "_email",
          "type": "string"
        }
      ],
      "name": "getAddress",
      "outputs": [
        {
          "internalType": "address",
          "name": "",
          "type": "address"
        }
      ],
      "stateMutability": "view",
      "type": "function"
    },
    {
      "inputs": [
        {
          "internalType": "string",
          "name": "_email",
          "type": "string"
        }
      ],
      "name": "getMemo",
      "outputs": [
        {
          "components": [
            {
              "internalType": "uint256",
              "name": "tenderid",
              "type": "uint256"
            },
            {
              "internalType": "string",
              "name": "status",
              "type": "string"
            },
            {
              "internalType": "string",
              "name": "title",
              "type": "string"
            },
            {
              "internalType": "string",
              "name": "details",
              "type": "string"
            },
            {
              "internalType": "string",
              "name": "DeployedTime",
              "type": "string"
            },
            {
              "internalType": "string",
              "name": "Startdate",
              "type": "string"
            },
            {
              "internalType": "string",
              "name": "Lastdate",
              "type": "string"
            },
            {
              "internalType": "string",
              "name": "BidopeningDate",
              "type": "string"
            },
            {
              "internalType": "string",
              "name": "OrganizationName",
              "type": "string"
            }
          ],
          "internalType": "struct DeployerApplication.ListObjects[]",
          "name": "",
          "type": "tuple[]"
        }
      ],
      "stateMutability": "view",
      "type": "function"
    },
    {
      "inputs": [],
      "name": "getOwner",
      "outputs": [
        {
          "internalType": "address",
          "name": "",
          "type": "address"
        }
      ],
      "stateMutability": "view",
      "type": "function"
    },
    {
      "inputs": [
        {
          "internalType": "string",
          "name": "_email",
          "type": "string"
        }
      ],
      "name": "getPassword",
      "outputs": [
        {
          "internalType": "string",
          "name": "",
          "type": "string"
        }
      ],
      "stateMutability": "view",
      "type": "function"
    },
    {
      "inputs": [],
      "name": "listOfContracts",
      "outputs": [
        {
          "components": [
            {
              "internalType": "uint256",
              "name": "tenderid",
              "type": "uint256"
            },
            {
              "internalType": "string",
              "name": "status",
              "type": "string"
            },
            {
              "internalType": "string",
              "name": "title",
              "type": "string"
            },
            {
              "internalType": "string",
              "name": "details",
              "type": "string"
            },
            {
              "internalType": "string",
              "name": "DeployedTime",
              "type": "string"
            },
            {
              "internalType": "string",
              "name": "Startdate",
              "type": "string"
            },
            {
              "internalType": "string",
              "name": "Lastdate",
              "type": "string"
            },
            {
              "internalType": "string",
              "name": "BidopeningDate",
              "type": "string"
            },
            {
              "internalType": "string",
              "name": "OrganizationName",
              "type": "string"
            }
          ],
          "internalType": "struct DeployerApplication.ListObjects[]",
          "name": "",
          "type": "tuple[]"
        }
      ],
      "stateMutability": "view",
      "type": "function"
    }
  ],
  "bytecode": "0x608060405234801561001057600080fd5b50336000806101000a81548173ffffffffffffffffffffffffffffffffffffffff021916908373ffffffffffffffffffffffffffffffffffffffff160217905550612319806100606000396000f3fe608060405234801561001057600080fd5b506004361061007d5760003560e01c8063893d20e81161005b578063893d20e8146100fe578063b37a3d821461011c578063bf40fac114610138578063d57230f7146101685761007d565b806301b8c31c146100825780631f1ab369146100b2578063216d90c2146100ce575b600080fd5b61009c60048036038101906100979190611628565b610186565b6040516100a991906116f9565b60405180910390f35b6100cc60048036038101906100c79190611751565b610236565b005b6100e860048036038101906100e39190611628565b61068f565b6040516100f59190611b0c565b60405180910390f35b610106610c54565b6040516101139190611b6f565b60405180910390f35b61013660048036038101906101319190611b8a565b610c7d565b005b610152600480360381019061014d9190611628565b610f8c565b60405161015f9190611b6f565b60405180910390f35b610170610fd4565b60405161017d9190611b0c565b60405180910390f35b60606002826040516101989190611ccd565b908152602001604051809103902080546101b190611d13565b80601f01602080910402602001604051908101604052809291908181526020018280546101dd90611d13565b801561022a5780601f106101ff5761010080835404028352916020019161022a565b820191906000526020600020905b81548152906001019060200180831161020d57829003601f168201915b50505050509050919050565b600073ffffffffffffffffffffffffffffffffffffffff166001600560003373ffffffffffffffffffffffffffffffffffffffff1673ffffffffffffffffffffffffffffffffffffffff16815260200190815260200160002060010160405161029f9190611ddc565b908152602001604051809103902060009054906101000a900473ffffffffffffffffffffffffffffffffffffffff1673ffffffffffffffffffffffffffffffffffffffff1603610324576040517f08c379a000000000000000000000000000000000000000000000000000000000815260040161031b90611e3f565b60405180910390fd5b6000600560003373ffffffffffffffffffffffffffffffffffffffff1673ffffffffffffffffffffffffffffffffffffffff168152602001908152602001600020600101805461037390611d13565b80601f016020809104026020016040519081016040528092919081815260200182805461039f90611d13565b80156103ec5780601f106103c1576101008083540402835291602001916103ec565b820191906000526020600020905b8154815290600101906020018083116103cf57829003601f168201915b5050505050905060006040518061012001604052808c81526020018a81526020018b81526020018981526020018881526020018781526020018681526020018581526020018481525090506003826040516104479190611ccd565b908152602001604051809103902081908060018154018082558091505060019003906000526020600020906009020160009091909190915060008201518160000155602082015181600101908161049e9190611ff6565b5060408201518160020190816104b49190611ff6565b5060608201518160030190816104ca9190611ff6565b5060808201518160040190816104e09190611ff6565b5060a08201518160050190816104f69190611ff6565b5060c082015181600601908161050c9190611ff6565b5060e08201518160070190816105229190611ff6565b506101008201518160080190816105399190611ff6565b50505060048190806001815401808255809150506001900390600052602060002090600902016000909190919091506000820151816000015560208201518160010190816105879190611ff6565b50604082015181600201908161059d9190611ff6565b5060608201518160030190816105b39190611ff6565b5060808201518160040190816105c99190611ff6565b5060a08201518160050190816105df9190611ff6565b5060c08201518160060190816105f59190611ff6565b5060e082015181600701908161060b9190611ff6565b506101008201518160080190816106229190611ff6565b505050816040516106339190611ccd565b60405180910390207fcec69f816a4626c112595c7c176016a36df1f7614b6f1b3d6d2973f414a89c9e8c8c8c8c8c8c8c8c8c60405161067a999897969594939291906120d7565b60405180910390a25050505050505050505050565b6060600073ffffffffffffffffffffffffffffffffffffffff166001836040516106b99190611ccd565b908152602001604051809103902060009054906101000a900473ffffffffffffffffffffffffffffffffffffffff1673ffffffffffffffffffffffffffffffffffffffff160361073e576040517f08c379a0000000000000000000000000000000000000000000000000000000008152600401610735906121e8565b60405180910390fd5b60038260405161074e9190611ccd565b9081526020016040518091039020805480602002602001604051908101604052809291908181526020016000905b82821015610c49578382906000526020600020906009020160405180610120016040529081600082015481526020016001820180546107ba90611d13565b80601f01602080910402602001604051908101604052809291908181526020018280546107e690611d13565b80156108335780601f1061080857610100808354040283529160200191610833565b820191906000526020600020905b81548152906001019060200180831161081657829003601f168201915b5050505050815260200160028201805461084c90611d13565b80601f016020809104026020016040519081016040528092919081815260200182805461087890611d13565b80156108c55780601f1061089a576101008083540402835291602001916108c5565b820191906000526020600020905b8154815290600101906020018083116108a857829003601f168201915b505050505081526020016003820180546108de90611d13565b80601f016020809104026020016040519081016040528092919081815260200182805461090a90611d13565b80156109575780601f1061092c57610100808354040283529160200191610957565b820191906000526020600020905b81548152906001019060200180831161093a57829003601f168201915b5050505050815260200160048201805461097090611d13565b80601f016020809104026020016040519081016040528092919081815260200182805461099c90611d13565b80156109e95780601f106109be576101008083540402835291602001916109e9565b820191906000526020600020905b8154815290600101906020018083116109cc57829003601f168201915b50505050508152602001600582018054610a0290611d13565b80601f0160208091040260200160405190810160405280929190818152602001828054610a2e90611d13565b8015610a7b5780601f10610a5057610100808354040283529160200191610a7b565b820191906000526020600020905b815481529060010190602001808311610a5e57829003601f168201915b50505050508152602001600682018054610a9490611d13565b80601f0160208091040260200160405190810160405280929190818152602001828054610ac090611d13565b8015610b0d5780601f10610ae257610100808354040283529160200191610b0d565b820191906000526020600020905b815481529060010190602001808311610af057829003601f168201915b50505050508152602001600782018054610b2690611d13565b80601f0160208091040260200160405190810160405280929190818152602001828054610b5290611d13565b8015610b9f5780601f10610b7457610100808354040283529160200191610b9f565b820191906000526020600020905b815481529060010190602001808311610b8257829003601f168201915b50505050508152602001600882018054610bb890611d13565b80601f0160208091040260200160405190810160405280929190818152602001828054610be490611d13565b8015610c315780601f10610c0657610100808354040283529160200191610c31565b820191906000526020600020905b815481529060010190602001808311610c1457829003601f168201915b5050505050815250508152602001906001019061077c565b505050509050919050565b60008060009054906101000a900473ffffffffffffffffffffffffffffffffffffffff16905090565b600073ffffffffffffffffffffffffffffffffffffffff16600185604051610ca59190611ccd565b908152602001604051809103902060009054906101000a900473ffffffffffffffffffffffffffffffffffffffff1673ffffffffffffffffffffffffffffffffffffffff1614610d2a576040517f08c379a0000000000000000000000000000000000000000000000000000000008152600401610d2190612254565b60405180910390fd5b60003390506040518060a001604052808781526020018681526020018581526020018381526020018273ffffffffffffffffffffffffffffffffffffffff16815250600560008373ffffffffffffffffffffffffffffffffffffffff1673ffffffffffffffffffffffffffffffffffffffff1681526020019081526020016000206000820151816000019081610dc09190611ff6565b506020820151816001019081610dd69190611ff6565b506040820151816002019081610dec9190611ff6565b506060820151816003019081610e029190611ff6565b5060808201518160040160006101000a81548173ffffffffffffffffffffffffffffffffffffffff021916908373ffffffffffffffffffffffffffffffffffffffff16021790555090505080600186604051610e5e9190611ccd565b908152602001604051809103902060006101000a81548173ffffffffffffffffffffffffffffffffffffffff021916908373ffffffffffffffffffffffffffffffffffffffff1602179055506001600660008373ffffffffffffffffffffffffffffffffffffffff1673ffffffffffffffffffffffffffffffffffffffff16815260200190815260200160002060006101000a81548160ff02191690831515021790555082600286604051610f139190611ccd565b90815260200160405180910390209081610f2d9190611ff6565b508073ffffffffffffffffffffffffffffffffffffffff167fedc1c608306a7679c53fde5bc4cd1b1ee13e11f0fa0d9cad68b8e7252c6989a48787878686604051610f7c959493929190612274565b60405180910390a2505050505050565b6000600182604051610f9e9190611ccd565b908152602001604051809103902060009054906101000a900473ffffffffffffffffffffffffffffffffffffffff169050919050565b60606004805480602002602001604051908101604052809291908181526020016000905b828210156114c55783829060005260206000209060090201604051806101200160405290816000820154815260200160018201805461103690611d13565b80601f016020809104026020016040519081016040528092919081815260200182805461106290611d13565b80156110af5780601f10611084576101008083540402835291602001916110af565b820191906000526020600020905b81548152906001019060200180831161109257829003601f168201915b505050505081526020016002820180546110c890611d13565b80601f01602080910402602001604051908101604052809291908181526020018280546110f490611d13565b80156111415780601f1061111657610100808354040283529160200191611141565b820191906000526020600020905b81548152906001019060200180831161112457829003601f168201915b5050505050815260200160038201805461115a90611d13565b80601f016020809104026020016040519081016040528092919081815260200182805461118690611d13565b80156111d35780601f106111a8576101008083540402835291602001916111d3565b820191906000526020600020905b8154815290600101906020018083116111b657829003601f168201915b505050505081526020016004820180546111ec90611d13565b80601f016020809104026020016040519081016040528092919081815260200182805461121890611d13565b80156112655780601f1061123a57610100808354040283529160200191611265565b820191906000526020600020905b81548152906001019060200180831161124857829003601f168201915b5050505050815260200160058201805461127e90611d13565b80601f01602080910402602001604051908101604052809291908181526020018280546112aa90611d13565b80156112f75780601f106112cc576101008083540402835291602001916112f7565b820191906000526020600020905b8154815290600101906020018083116112da57829003601f168201915b5050505050815260200160068201805461131090611d13565b80601f016020809104026020016040519081016040528092919081815260200182805461133c90611d13565b80156113895780601f1061135e57610100808354040283529160200191611389565b820191906000526020600020905b81548152906001019060200180831161136c57829003601f168201915b505050505081526020016007820180546113a290611d13565b80601f01602080910402602001604051908101604052809291908181526020018280546113ce90611d13565b801561141b5780601f106113f05761010080835404028352916020019161141b565b820191906000526020600020905b8154815290600101906020018083116113fe57829003601f168201915b5050505050815260200160088201805461143490611d13565b80601f016020809104026020016040519081016040528092919081815260200182805461146090611d13565b80156114ad5780601f10611482576101008083540402835291602001916114ad565b820191906000526020600020905b81548152906001019060200180831161149057829003601f168201915b50505050508152505081526020019060010190610ff8565b50505050905090565b6000604051905090565b600080fd5b600080fd5b600080fd5b600080fd5b6000601f19601f8301169050919050565b7f4e487b7100000000000000000000000000000000000000000000000000000000600052604160045260246000fd5b611535826114ec565b810181811067ffffffffffffffff82111715611554576115536114fd565b5b80604052505050565b60006115676114ce565b9050611573828261152c565b919050565b600067ffffffffffffffff821115611593576115926114fd565b5b61159c826114ec565b9050602081019050919050565b82818337600083830152505050565b60006115cb6115c684611578565b61155d565b9050828152602081018484840111156115e7576115e66114e7565b5b6115f28482856115a9565b509392505050565b600082601f83011261160f5761160e6114e2565b5b813561161f8482602086016115b8565b91505092915050565b60006020828403121561163e5761163d6114d8565b5b600082013567ffffffffffffffff81111561165c5761165b6114dd565b5b611668848285016115fa565b91505092915050565b600081519050919050565b600082825260208201905092915050565b60005b838110156116ab578082015181840152602081019050611690565b838111156116ba576000848401525b50505050565b60006116cb82611671565b6116d5818561167c565b93506116e581856020860161168d565b6116ee816114ec565b840191505092915050565b6000602082019050818103600083015261171381846116c0565b905092915050565b6000819050919050565b61172e8161171b565b811461173957600080fd5b50565b60008135905061174b81611725565b92915050565b60008060008060008060008060006101208a8c031215611774576117736114d8565b5b60006117828c828d0161173c565b99505060208a013567ffffffffffffffff8111156117a3576117a26114dd565b5b6117af8c828d016115fa565b98505060408a013567ffffffffffffffff8111156117d0576117cf6114dd565b5b6117dc8c828d016115fa565b97505060608a013567ffffffffffffffff8111156117fd576117fc6114dd565b5b6118098c828d016115fa565b96505060808a013567ffffffffffffffff81111561182a576118296114dd565b5b6118368c828d016115fa565b95505060a08a013567ffffffffffffffff811115611857576118566114dd565b5b6118638c828d016115fa565b94505060c08a013567ffffffffffffffff811115611884576118836114dd565b5b6118908c828d016115fa565b93505060e08a013567ffffffffffffffff8111156118b1576118b06114dd565b5b6118bd8c828d016115fa565b9250506101008a013567ffffffffffffffff8111156118df576118de6114dd565b5b6118eb8c828d016115fa565b9150509295985092959850929598565b600081519050919050565b600082825260208201905092915050565b6000819050602082019050919050565b6119308161171b565b82525050565b600082825260208201905092915050565b600061195282611671565b61195c8185611936565b935061196c81856020860161168d565b611975816114ec565b840191505092915050565b6000610120830160008301516119996000860182611927565b50602083015184820360208601526119b18282611947565b915050604083015184820360408601526119cb8282611947565b915050606083015184820360608601526119e58282611947565b915050608083015184820360808601526119ff8282611947565b91505060a083015184820360a0860152611a198282611947565b91505060c083015184820360c0860152611a338282611947565b91505060e083015184820360e0860152611a4d8282611947565b915050610100830151848203610100860152611a698282611947565b9150508091505092915050565b6000611a828383611980565b905092915050565b6000602082019050919050565b6000611aa2826118fb565b611aac8185611906565b935083602082028501611abe85611917565b8060005b85811015611afa5784840389528151611adb8582611a76565b9450611ae683611a8a565b925060208a01995050600181019050611ac2565b50829750879550505050505092915050565b60006020820190508181036000830152611b268184611a97565b905092915050565b600073ffffffffffffffffffffffffffffffffffffffff82169050919050565b6000611b5982611b2e565b9050919050565b611b6981611b4e565b82525050565b6000602082019050611b846000830184611b60565b92915050565b600080600080600060a08688031215611ba657611ba56114d8565b5b600086013567ffffffffffffffff811115611bc457611bc36114dd565b5b611bd0888289016115fa565b955050602086013567ffffffffffffffff811115611bf157611bf06114dd565b5b611bfd888289016115fa565b945050604086013567ffffffffffffffff811115611c1e57611c1d6114dd565b5b611c2a888289016115fa565b935050606086013567ffffffffffffffff811115611c4b57611c4a6114dd565b5b611c57888289016115fa565b925050608086013567ffffffffffffffff811115611c7857611c776114dd565b5b611c84888289016115fa565b9150509295509295909350565b600081905092915050565b6000611ca782611671565b611cb18185611c91565b9350611cc181856020860161168d565b80840191505092915050565b6000611cd98284611c9c565b915081905092915050565b7f4e487b7100000000000000000000000000000000000000000000000000000000600052602260045260246000fd5b60006002820490506001821680611d2b57607f821691505b602082108103611d3e57611d3d611ce4565b5b50919050565b60008190508160005260206000209050919050565b60008154611d6681611d13565b611d708186611c91565b94506001821660008114611d8b5760018114611da057611dd3565b60ff1983168652811515820286019350611dd3565b611da985611d44565b60005b83811015611dcb57815481890152600182019150602081019050611dac565b838801955050505b50505092915050565b6000611de88284611d59565b915081905092915050565b7f5573657220646f6573206e6f7420657869737400000000000000000000000000600082015250565b6000611e2960138361167c565b9150611e3482611df3565b602082019050919050565b60006020820190508181036000830152611e5881611e1c565b9050919050565b60006020601f8301049050919050565b600082821b905092915050565b600060088302611eac7fffffffffffffffffffffffffffffffffffffffffffffffffffffffffffffffff82611e6f565b611eb68683611e6f565b95508019841693508086168417925050509392505050565b6000819050919050565b6000611ef3611eee611ee98461171b565b611ece565b61171b565b9050919050565b6000819050919050565b611f0d83611ed8565b611f21611f1982611efa565b848454611e7c565b825550505050565b600090565b611f36611f29565b611f41818484611f04565b505050565b5b81811015611f6557611f5a600082611f2e565b600181019050611f47565b5050565b601f821115611faa57611f7b81611d44565b611f8484611e5f565b81016020851015611f93578190505b611fa7611f9f85611e5f565b830182611f46565b50505b505050565b600082821c905092915050565b6000611fcd60001984600802611faf565b1980831691505092915050565b6000611fe68383611fbc565b9150826002028217905092915050565b611fff82611671565b67ffffffffffffffff811115612018576120176114fd565b5b6120228254611d13565b61202d828285611f69565b600060209050601f831160018114612060576000841561204e578287015190505b6120588582611fda565b8655506120c0565b601f19841661206e86611d44565b60005b8281101561209657848901518255600182019150602085019450602081019050612071565b868310156120b357848901516120af601f891682611fbc565b8355505b6001600288020188555050505b505050505050565b6120d18161171b565b82525050565b6000610120820190506120ed600083018c6120c8565b81810360208301526120ff818b6116c0565b90508181036040830152612113818a6116c0565b9050818103606083015261212781896116c0565b9050818103608083015261213b81886116c0565b905081810360a083015261214f81876116c0565b905081810360c083015261216381866116c0565b905081810360e083015261217781856116c0565b905081810361010083015261218c81846116c0565b90509a9950505050505050505050565b7f456d61696c206164647265737320646f6573206e6f7420657869737400000000600082015250565b60006121d2601c8361167c565b91506121dd8261219c565b602082019050919050565b60006020820190508181036000830152612201816121c5565b9050919050565b7f456d61696c206164647265737320616c72656164792065786973747300000000600082015250565b600061223e601c8361167c565b915061224982612208565b602082019050919050565b6000602082019050818103600083015261226d81612231565b9050919050565b600060a082019050818103600083015261228e81886116c0565b905081810360208301526122a281876116c0565b905081810360408301526122b681866116c0565b905081810360608301526122ca81856116c0565b90506122d96080830184611b60565b969550505050505056fea2646970667358221220276ae7ca3e018a35299b94c08403c9f4044e60e29bbc13abbad2143f3b882b6364736f6c634300080f0033",
  "linkReferences": {},
  "deployedLinkReferences": {}
}