{
  "_format": "hh-sol-artifact-1",
  "contractName": "DeployerApplication",
  "sourceName": "contracts/TenderChain.sol",
  "abi": [
    {
      "inputs": [],
      "stateMutability": "nonpayable",
      "type": "constructor"
    },
    {
      "inputs": [
        {
          "internalType": "uint256",
          "name": "_tenderid",
          "type": "uint256"
        },
        {
          "internalType": "string",
          "name": "_title",
          "type": "string"
        },
        {
          "internalType": "string",
          "name": "_status",
          "type": "string"
        },
        {
          "internalType": "string",
          "name": "_details",
          "type": "string"
        },
        {
          "internalType": "string",
          "name": "_DeployedTime",
          "type": "string"
        },
        {
          "internalType": "string",
          "name": "_Startdate",
          "type": "string"
        },
        {
          "internalType": "string",
          "name": "_Lastdate",
          "type": "string"
        },
        {
          "internalType": "string",
          "name": "_BidopeningDate",
          "type": "string"
        },
        {
          "internalType": "string",
          "name": "_OrganizationName",
          "type": "string"
        }
      ],
      "name": "DeployContract",
      "outputs": [],
      "stateMutability": "nonpayable",
      "type": "function"
    },
    {
      "inputs": [
        {
          "internalType": "string",
          "name": "",
          "type": "string"
        }
      ],
      "name": "UserEmailPassword",
      "outputs": [
        {
          "internalType": "string",
          "name": "",
          "type": "string"
        }
      ],
      "stateMutability": "view",
      "type": "function"
    },
    {
      "inputs": [
        {
          "internalType": "string",
          "name": "_name",
          "type": "string"
        },
        {
          "internalType": "string",
          "name": "_email",
          "type": "string"
        },
        {
          "internalType": "string",
          "name": "_country",
          "type": "string"
        },
        {
          "internalType": "string",
          "name": "_password",
          "type": "string"
        },
        {
          "internalType": "string",
          "name": "_phoneNumber",
          "type": "string"
        }
      ],
      "name": "addUser",
      "outputs": [],
      "stateMutability": "nonpayable",
      "type": "function"
    },
    {
      "inputs": [
        {
          "internalType": "address",
          "name": "_userAddress",
          "type": "address"
        }
      ],
      "name": "getMemo",
      "outputs": [
        {
          "internalType": "uint256",
          "name": "",
          "type": "uint256"
        },
        {
          "internalType": "string",
          "name": "",
          "type": "string"
        },
        {
          "internalType": "string",
          "name": "",
          "type": "string"
        },
        {
          "internalType": "string",
          "name": "",
          "type": "string"
        },
        {
          "internalType": "string",
          "name": "",
          "type": "string"
        },
        {
          "internalType": "string",
          "name": "",
          "type": "string"
        },
        {
          "internalType": "string",
          "name": "",
          "type": "string"
        },
        {
          "internalType": "string",
          "name": "",
          "type": "string"
        },
        {
          "internalType": "string",
          "name": "",
          "type": "string"
        }
      ],
      "stateMutability": "view",
      "type": "function"
    },
    {
      "inputs": [
        {
          "internalType": "string",
          "name": "email",
          "type": "string"
        }
      ],
      "name": "getPassword",
      "outputs": [
        {
          "internalType": "string",
          "name": "",
          "type": "string"
        }
      ],
      "stateMutability": "view",
      "type": "function"
    },
    {
      "inputs": [],
      "name": "owner",
      "outputs": [
        {
          "internalType": "address payable",
          "name": "",
          "type": "address"
        }
      ],
      "stateMutability": "view",
      "type": "function"
    },
    {
      "inputs": [
        {
          "internalType": "string",
          "name": "",
          "type": "string"
        }
      ],
      "name": "userAddressesByEmail",
      "outputs": [
        {
          "internalType": "address",
          "name": "",
          "type": "address"
        }
      ],
      "stateMutability": "view",
      "type": "function"
    }
  ],
  "bytecode": "0x608060405234801561001057600080fd5b50336000806101000a81548173ffffffffffffffffffffffffffffffffffffffff021916908373ffffffffffffffffffffffffffffffffffffffff160217905550611ca1806100606000396000f3fe608060405234801561001057600080fd5b506004361061007d5760003560e01c80638da5cb5b1161005b5780638da5cb5b146100fe578063983c6eb91461011c578063b37a3d821461014c578063fd16c512146101685761007d565b806301b8c31c146100825780630356a0a9146100b2578063041d32fe146100e2575b600080fd5b61009c600480360381019061009791906112c3565b6101a0565b6040516100a99190611394565b60405180910390f35b6100cc60048036038101906100c791906112c3565b610250565b6040516100d991906113f7565b60405180910390f35b6100fc60048036038101906100f79190611448565b610299565b005b61010661064b565b6040516101139190611613565b60405180910390f35b610136600480360381019061013191906112c3565b61066f565b6040516101439190611394565b60405180910390f35b6101666004803603810190610161919061162e565b610725565b005b610182600480360381019061017d9190611761565b61097b565b6040516101979998979695949392919061179d565b60405180910390f35b60606002826040516101b2919061189e565b908152602001604051809103902080546101cb906118e4565b80601f01602080910402602001604051908101604052809291908181526020018280546101f7906118e4565b80156102445780601f1061021957610100808354040283529160200191610244565b820191906000526020600020905b81548152906001019060200180831161022757829003601f168201915b50505050509050919050565b6001818051602081018201805184825260208301602085012081835280955050505050506000915054906101000a900473ffffffffffffffffffffffffffffffffffffffff1681565b600560003373ffffffffffffffffffffffffffffffffffffffff1673ffffffffffffffffffffffffffffffffffffffff16815260200190815260200160002060009054906101000a900460ff16610325576040517f08c379a000000000000000000000000000000000000000000000000000000000815260040161031c90611961565b60405180910390fd5b3373ffffffffffffffffffffffffffffffffffffffff1660008054906101000a900473ffffffffffffffffffffffffffffffffffffffff1673ffffffffffffffffffffffffffffffffffffffff16036106405788600360003373ffffffffffffffffffffffffffffffffffffffff1673ffffffffffffffffffffffffffffffffffffffff1681526020019081526020016000206000018190555087600360003373ffffffffffffffffffffffffffffffffffffffff1673ffffffffffffffffffffffffffffffffffffffff168152602001908152602001600020600201908161040e9190611b2d565b5086600360003373ffffffffffffffffffffffffffffffffffffffff1673ffffffffffffffffffffffffffffffffffffffff168152602001908152602001600020600101908161045e9190611b2d565b5085600360003373ffffffffffffffffffffffffffffffffffffffff1673ffffffffffffffffffffffffffffffffffffffff16815260200190815260200160002060030190816104ae9190611b2d565b5084600360003373ffffffffffffffffffffffffffffffffffffffff1673ffffffffffffffffffffffffffffffffffffffff16815260200190815260200160002060040190816104fe9190611b2d565b5083600360003373ffffffffffffffffffffffffffffffffffffffff1673ffffffffffffffffffffffffffffffffffffffff168152602001908152602001600020600501908161054e9190611b2d565b5082600360003373ffffffffffffffffffffffffffffffffffffffff1673ffffffffffffffffffffffffffffffffffffffff168152602001908152602001600020600601908161059e9190611b2d565b5081600360003373ffffffffffffffffffffffffffffffffffffffff1673ffffffffffffffffffffffffffffffffffffffff16815260200190815260200160002060070190816105ee9190611b2d565b5080600360003373ffffffffffffffffffffffffffffffffffffffff1673ffffffffffffffffffffffffffffffffffffffff168152602001908152602001600020600801908161063e9190611b2d565b505b505050505050505050565b60008054906101000a900473ffffffffffffffffffffffffffffffffffffffff1681565b60028180516020810182018051848252602083016020850120818352809550505050505060009150905080546106a4906118e4565b80601f01602080910402602001604051908101604052809291908181526020018280546106d0906118e4565b801561071d5780601f106106f25761010080835404028352916020019161071d565b820191906000526020600020905b81548152906001019060200180831161070057829003601f168201915b505050505081565b600073ffffffffffffffffffffffffffffffffffffffff1660018560405161074d919061189e565b908152602001604051809103902060009054906101000a900473ffffffffffffffffffffffffffffffffffffffff1673ffffffffffffffffffffffffffffffffffffffff16146107d2576040517f08c379a00000000000000000000000000000000000000000000000000000000081526004016107c990611c4b565b60405180910390fd5b6000339050604051806080016040528087815260200186815260200185815260200183815250600460008373ffffffffffffffffffffffffffffffffffffffff1673ffffffffffffffffffffffffffffffffffffffff168152602001908152602001600020600082015181600001908161084c9190611b2d565b5060208201518160010190816108629190611b2d565b5060408201518160020190816108789190611b2d565b50606082015181600301908161088e9190611b2d565b50905050806001866040516108a3919061189e565b908152602001604051809103902060006101000a81548173ffffffffffffffffffffffffffffffffffffffff021916908373ffffffffffffffffffffffffffffffffffffffff1602179055506001600560008373ffffffffffffffffffffffffffffffffffffffff1673ffffffffffffffffffffffffffffffffffffffff16815260200190815260200160002060006101000a81548160ff02191690831515021790555082600286604051610958919061189e565b908152602001604051809103902090816109729190611b2d565b50505050505050565b6000606080606080606080606080600560008b73ffffffffffffffffffffffffffffffffffffffff1673ffffffffffffffffffffffffffffffffffffffff16815260200190815260200160002060009054906101000a900460ff16610a15576040517f08c379a0000000000000000000000000000000000000000000000000000000008152600401610a0c90611961565b60405180910390fd5b8973ffffffffffffffffffffffffffffffffffffffff1660008054906101000a900473ffffffffffffffffffffffffffffffffffffffff1673ffffffffffffffffffffffffffffffffffffffff1603610f97576000600360008c73ffffffffffffffffffffffffffffffffffffffff1673ffffffffffffffffffffffffffffffffffffffff1681526020019081526020016000206040518061012001604052908160008201548152602001600182018054610acf906118e4565b80601f0160208091040260200160405190810160405280929190818152602001828054610afb906118e4565b8015610b485780601f10610b1d57610100808354040283529160200191610b48565b820191906000526020600020905b815481529060010190602001808311610b2b57829003601f168201915b50505050508152602001600282018054610b61906118e4565b80601f0160208091040260200160405190810160405280929190818152602001828054610b8d906118e4565b8015610bda5780601f10610baf57610100808354040283529160200191610bda565b820191906000526020600020905b815481529060010190602001808311610bbd57829003601f168201915b50505050508152602001600382018054610bf3906118e4565b80601f0160208091040260200160405190810160405280929190818152602001828054610c1f906118e4565b8015610c6c5780601f10610c4157610100808354040283529160200191610c6c565b820191906000526020600020905b815481529060010190602001808311610c4f57829003601f168201915b50505050508152602001600482018054610c85906118e4565b80601f0160208091040260200160405190810160405280929190818152602001828054610cb1906118e4565b8015610cfe5780601f10610cd357610100808354040283529160200191610cfe565b820191906000526020600020905b815481529060010190602001808311610ce157829003601f168201915b50505050508152602001600582018054610d17906118e4565b80601f0160208091040260200160405190810160405280929190818152602001828054610d43906118e4565b8015610d905780601f10610d6557610100808354040283529160200191610d90565b820191906000526020600020905b815481529060010190602001808311610d7357829003601f168201915b50505050508152602001600682018054610da9906118e4565b80601f0160208091040260200160405190810160405280929190818152602001828054610dd5906118e4565b8015610e225780601f10610df757610100808354040283529160200191610e22565b820191906000526020600020905b815481529060010190602001808311610e0557829003601f168201915b50505050508152602001600782018054610e3b906118e4565b80601f0160208091040260200160405190810160405280929190818152602001828054610e67906118e4565b8015610eb45780601f10610e8957610100808354040283529160200191610eb4565b820191906000526020600020905b815481529060010190602001808311610e9757829003601f168201915b50505050508152602001600882018054610ecd906118e4565b80601f0160208091040260200160405190810160405280929190818152602001828054610ef9906118e4565b8015610f465780601f10610f1b57610100808354040283529160200191610f46565b820191906000526020600020905b815481529060010190602001808311610f2957829003601f168201915b5050505050815250509050806000015181602001518260400151836060015184608001518560a001518660c001518760e001518861010001519950995099509950995099509950995099505061115c565b60006040518060400160405280600481526020017f4e6f6e65000000000000000000000000000000000000000000000000000000008152506040518060400160405280600481526020017f4e6f6e65000000000000000000000000000000000000000000000000000000008152506040518060400160405280600481526020017f4e6f6e65000000000000000000000000000000000000000000000000000000008152506040518060400160405280600481526020017f4e6f6e65000000000000000000000000000000000000000000000000000000008152506040518060400160405280600481526020017f4e6f6e65000000000000000000000000000000000000000000000000000000008152506040518060400160405280600481526020017f4e6f6e65000000000000000000000000000000000000000000000000000000008152506040518060400160405280600481526020017f4e6f6e65000000000000000000000000000000000000000000000000000000008152506040518060400160405280600481526020017f4e6f6e65000000000000000000000000000000000000000000000000000000008152509850985098509850985098509850985098505b9193959799909294969850565b6000604051905090565b600080fd5b600080fd5b600080fd5b600080fd5b6000601f19601f8301169050919050565b7f4e487b7100000000000000000000000000000000000000000000000000000000600052604160045260246000fd5b6111d082611187565b810181811067ffffffffffffffff821117156111ef576111ee611198565b5b80604052505050565b6000611202611169565b905061120e82826111c7565b919050565b600067ffffffffffffffff82111561122e5761122d611198565b5b61123782611187565b9050602081019050919050565b82818337600083830152505050565b600061126661126184611213565b6111f8565b90508281526020810184848401111561128257611281611182565b5b61128d848285611244565b509392505050565b600082601f8301126112aa576112a961117d565b5b81356112ba848260208601611253565b91505092915050565b6000602082840312156112d9576112d8611173565b5b600082013567ffffffffffffffff8111156112f7576112f6611178565b5b61130384828501611295565b91505092915050565b600081519050919050565b600082825260208201905092915050565b60005b8381101561134657808201518184015260208101905061132b565b83811115611355576000848401525b50505050565b60006113668261130c565b6113708185611317565b9350611380818560208601611328565b61138981611187565b840191505092915050565b600060208201905081810360008301526113ae818461135b565b905092915050565b600073ffffffffffffffffffffffffffffffffffffffff82169050919050565b60006113e1826113b6565b9050919050565b6113f1816113d6565b82525050565b600060208201905061140c60008301846113e8565b92915050565b6000819050919050565b61142581611412565b811461143057600080fd5b50565b6000813590506114428161141c565b92915050565b60008060008060008060008060006101208a8c03121561146b5761146a611173565b5b60006114798c828d01611433565b99505060208a013567ffffffffffffffff81111561149a57611499611178565b5b6114a68c828d01611295565b98505060408a013567ffffffffffffffff8111156114c7576114c6611178565b5b6114d38c828d01611295565b97505060608a013567ffffffffffffffff8111156114f4576114f3611178565b5b6115008c828d01611295565b96505060808a013567ffffffffffffffff81111561152157611520611178565b5b61152d8c828d01611295565b95505060a08a013567ffffffffffffffff81111561154e5761154d611178565b5b61155a8c828d01611295565b94505060c08a013567ffffffffffffffff81111561157b5761157a611178565b5b6115878c828d01611295565b93505060e08a013567ffffffffffffffff8111156115a8576115a7611178565b5b6115b48c828d01611295565b9250506101008a013567ffffffffffffffff8111156115d6576115d5611178565b5b6115e28c828d01611295565b9150509295985092959850929598565b60006115fd826113b6565b9050919050565b61160d816115f2565b82525050565b60006020820190506116286000830184611604565b92915050565b600080600080600060a0868803121561164a57611649611173565b5b600086013567ffffffffffffffff81111561166857611667611178565b5b61167488828901611295565b955050602086013567ffffffffffffffff81111561169557611694611178565b5b6116a188828901611295565b945050604086013567ffffffffffffffff8111156116c2576116c1611178565b5b6116ce88828901611295565b935050606086013567ffffffffffffffff8111156116ef576116ee611178565b5b6116fb88828901611295565b925050608086013567ffffffffffffffff81111561171c5761171b611178565b5b61172888828901611295565b9150509295509295909350565b61173e816113d6565b811461174957600080fd5b50565b60008135905061175b81611735565b92915050565b60006020828403121561177757611776611173565b5b60006117858482850161174c565b91505092915050565b61179781611412565b82525050565b6000610120820190506117b3600083018c61178e565b81810360208301526117c5818b61135b565b905081810360408301526117d9818a61135b565b905081810360608301526117ed818961135b565b90508181036080830152611801818861135b565b905081810360a0830152611815818761135b565b905081810360c0830152611829818661135b565b905081810360e083015261183d818561135b565b9050818103610100830152611852818461135b565b90509a9950505050505050505050565b600081905092915050565b60006118788261130c565b6118828185611862565b9350611892818560208601611328565b80840191505092915050565b60006118aa828461186d565b915081905092915050565b7f4e487b7100000000000000000000000000000000000000000000000000000000600052602260045260246000fd5b600060028204905060018216806118fc57607f821691505b60208210810361190f5761190e6118b5565b5b50919050565b7f5573657220646f6573206e6f7420657869737400000000000000000000000000600082015250565b600061194b601383611317565b915061195682611915565b602082019050919050565b6000602082019050818103600083015261197a8161193e565b9050919050565b60008190508160005260206000209050919050565b60006020601f8301049050919050565b600082821b905092915050565b6000600883026119e37fffffffffffffffffffffffffffffffffffffffffffffffffffffffffffffffff826119a6565b6119ed86836119a6565b95508019841693508086168417925050509392505050565b6000819050919050565b6000611a2a611a25611a2084611412565b611a05565b611412565b9050919050565b6000819050919050565b611a4483611a0f565b611a58611a5082611a31565b8484546119b3565b825550505050565b600090565b611a6d611a60565b611a78818484611a3b565b505050565b5b81811015611a9c57611a91600082611a65565b600181019050611a7e565b5050565b601f821115611ae157611ab281611981565b611abb84611996565b81016020851015611aca578190505b611ade611ad685611996565b830182611a7d565b50505b505050565b600082821c905092915050565b6000611b0460001984600802611ae6565b1980831691505092915050565b6000611b1d8383611af3565b9150826002028217905092915050565b611b368261130c565b67ffffffffffffffff811115611b4f57611b4e611198565b5b611b5982546118e4565b611b64828285611aa0565b600060209050601f831160018114611b975760008415611b85578287015190505b611b8f8582611b11565b865550611bf7565b601f198416611ba586611981565b60005b82811015611bcd57848901518255600182019150602085019450602081019050611ba8565b86831015611bea5784890151611be6601f891682611af3565b8355505b6001600288020188555050505b505050505050565b7f456d61696c206164647265737320616c72656164792065786973747300000000600082015250565b6000611c35601c83611317565b9150611c4082611bff565b602082019050919050565b60006020820190508181036000830152611c6481611c28565b905091905056fea2646970667358221220afeb179888c299a877cc66a817c0372b96776fe03788a15e67852a84a20cf46a64736f6c634300080f0033",
  "linkReferences": {},
  "deployedLinkReferences": {}
}