{
  "_format": "hh-sol-artifact-1",
  "contractName": "DeployerApplication",
  "sourceName": "contracts/TenderChain.sol",
  "abi": [
    {
      "inputs": [],
      "stateMutability": "nonpayable",
      "type": "constructor"
    },
    {
      "anonymous": false,
      "inputs": [
        {
          "indexed": false,
          "internalType": "uint256",
          "name": "tenderid",
          "type": "uint256"
        },
        {
          "indexed": false,
          "internalType": "string",
          "name": "name",
          "type": "string"
        },
        {
          "indexed": false,
          "internalType": "string",
          "name": "phoneNo",
          "type": "string"
        },
        {
          "indexed": false,
          "internalType": "uint256",
          "name": "biddingPrice",
          "type": "uint256"
        },
        {
          "indexed": false,
          "internalType": "string",
          "name": "ApplicantEmail",
          "type": "string"
        }
      ],
      "name": "ApplicantApplied",
      "type": "event"
    },
    {
      "anonymous": false,
      "inputs": [
        {
          "indexed": true,
          "internalType": "string",
          "name": "UserEmail",
          "type": "string"
        },
        {
          "indexed": false,
          "internalType": "uint256",
          "name": "tenderid",
          "type": "uint256"
        },
        {
          "indexed": false,
          "internalType": "string",
          "name": "title",
          "type": "string"
        },
        {
          "indexed": false,
          "internalType": "string",
          "name": "status",
          "type": "string"
        },
        {
          "indexed": false,
          "internalType": "string",
          "name": "details",
          "type": "string"
        },
        {
          "indexed": false,
          "internalType": "string",
          "name": "deployedTime",
          "type": "string"
        },
        {
          "indexed": false,
          "internalType": "string",
          "name": "startDate",
          "type": "string"
        },
        {
          "indexed": false,
          "internalType": "string",
          "name": "lastDate",
          "type": "string"
        },
        {
          "indexed": false,
          "internalType": "string",
          "name": "bidOpeningDate",
          "type": "string"
        },
        {
          "indexed": false,
          "internalType": "uint256",
          "name": "minimumBiddingPrice",
          "type": "uint256"
        },
        {
          "indexed": false,
          "internalType": "string",
          "name": "organizationName",
          "type": "string"
        }
      ],
      "name": "ContractDeployed",
      "type": "event"
    },
    {
      "anonymous": false,
      "inputs": [
        {
          "indexed": true,
          "internalType": "address",
          "name": "userAddress",
          "type": "address"
        },
        {
          "indexed": false,
          "internalType": "string",
          "name": "name",
          "type": "string"
        },
        {
          "indexed": false,
          "internalType": "string",
          "name": "email",
          "type": "string"
        },
        {
          "indexed": false,
          "internalType": "string",
          "name": "country",
          "type": "string"
        },
        {
          "indexed": false,
          "internalType": "string",
          "name": "phoneNumber",
          "type": "string"
        }
      ],
      "name": "UserAdded",
      "type": "event"
    },
    {
      "inputs": [
        {
          "internalType": "uint256",
          "name": "_TenderId",
          "type": "uint256"
        },
        {
          "internalType": "string",
          "name": "_Name",
          "type": "string"
        },
        {
          "internalType": "string",
          "name": "_PhoneNO",
          "type": "string"
        },
        {
          "internalType": "uint256",
          "name": "_BiddingPrice",
          "type": "uint256"
        },
        {
          "internalType": "string",
          "name": "_ApplicantEmail",
          "type": "string"
        }
      ],
      "name": "Apply",
      "outputs": [],
      "stateMutability": "nonpayable",
      "type": "function"
    },
    {
      "inputs": [
        {
          "internalType": "string",
          "name": "_name",
          "type": "string"
        },
        {
          "internalType": "string",
          "name": "_email",
          "type": "string"
        },
        {
          "internalType": "string",
          "name": "_country",
          "type": "string"
        },
        {
          "internalType": "string",
          "name": "_password",
          "type": "string"
        },
        {
          "internalType": "string",
          "name": "_phoneNumber",
          "type": "string"
        }
      ],
      "name": "addUser",
      "outputs": [],
      "stateMutability": "nonpayable",
      "type": "function"
    },
    {
      "inputs": [
        {
          "internalType": "uint256",
          "name": "_tenderid",
          "type": "uint256"
        },
        {
          "internalType": "string",
          "name": "_title",
          "type": "string"
        },
        {
          "internalType": "string",
          "name": "_status",
          "type": "string"
        },
        {
          "internalType": "string",
          "name": "_details",
          "type": "string"
        },
        {
          "internalType": "string",
          "name": "_DeployedTime",
          "type": "string"
        },
        {
          "internalType": "string",
          "name": "_Startdate",
          "type": "string"
        },
        {
          "internalType": "string",
          "name": "_Lastdate",
          "type": "string"
        },
        {
          "internalType": "string",
          "name": "_BidopeningDate",
          "type": "string"
        },
        {
          "internalType": "uint256",
          "name": "_minimumBiddingPrice",
          "type": "uint256"
        },
        {
          "internalType": "string",
          "name": "_OrganizationName",
          "type": "string"
        }
      ],
      "name": "deployContract",
      "outputs": [],
      "stateMutability": "nonpayable",
      "type": "function"
    },
    {
      "inputs": [
        {
          "internalType": "string",
          "name": "_email",
          "type": "string"
        }
      ],
      "name": "getAddress",
      "outputs": [
        {
          "internalType": "address",
          "name": "",
          "type": "address"
        }
      ],
      "stateMutability": "view",
      "type": "function"
    },
    {
      "inputs": [
        {
          "internalType": "uint256",
          "name": "_TenderId",
          "type": "uint256"
        }
      ],
      "name": "getApplicants",
      "outputs": [
        {
          "components": [
            {
              "internalType": "uint256",
              "name": "TenderID",
              "type": "uint256"
            },
            {
              "internalType": "string",
              "name": "PhoneNO",
              "type": "string"
            },
            {
              "internalType": "uint256",
              "name": "BiddingPrice",
              "type": "uint256"
            },
            {
              "internalType": "string",
              "name": "Name",
              "type": "string"
            },
            {
              "internalType": "string",
              "name": "ApplicantEmail",
              "type": "string"
            }
          ],
          "internalType": "struct DeployerApplication.Applicant[]",
          "name": "",
          "type": "tuple[]"
        }
      ],
      "stateMutability": "view",
      "type": "function"
    },
    {
      "inputs": [
        {
          "internalType": "string",
          "name": "_email",
          "type": "string"
        }
      ],
      "name": "getMemo",
      "outputs": [
        {
          "components": [
            {
              "internalType": "uint256",
              "name": "tenderid",
              "type": "uint256"
            },
            {
              "internalType": "string",
              "name": "status",
              "type": "string"
            },
            {
              "internalType": "string",
              "name": "title",
              "type": "string"
            },
            {
              "internalType": "string",
              "name": "details",
              "type": "string"
            },
            {
              "internalType": "string",
              "name": "DeployedTime",
              "type": "string"
            },
            {
              "internalType": "string",
              "name": "Startdate",
              "type": "string"
            },
            {
              "internalType": "string",
              "name": "Lastdate",
              "type": "string"
            },
            {
              "internalType": "string",
              "name": "BidopeningDate",
              "type": "string"
            },
            {
              "internalType": "uint256",
              "name": "minimumBiddingPrice",
              "type": "uint256"
            },
            {
              "internalType": "string",
              "name": "OrganizationName",
              "type": "string"
            }
          ],
          "internalType": "struct DeployerApplication.ListObjects[]",
          "name": "",
          "type": "tuple[]"
        }
      ],
      "stateMutability": "view",
      "type": "function"
    },
    {
      "inputs": [
        {
          "internalType": "uint256",
          "name": "_TenderID",
          "type": "uint256"
        }
      ],
      "name": "getMemoByID",
      "outputs": [
        {
          "components": [
            {
              "internalType": "uint256",
              "name": "tenderid",
              "type": "uint256"
            },
            {
              "internalType": "string",
              "name": "status",
              "type": "string"
            },
            {
              "internalType": "string",
              "name": "title",
              "type": "string"
            },
            {
              "internalType": "string",
              "name": "details",
              "type": "string"
            },
            {
              "internalType": "string",
              "name": "DeployedTime",
              "type": "string"
            },
            {
              "internalType": "string",
              "name": "Startdate",
              "type": "string"
            },
            {
              "internalType": "string",
              "name": "Lastdate",
              "type": "string"
            },
            {
              "internalType": "string",
              "name": "BidopeningDate",
              "type": "string"
            },
            {
              "internalType": "uint256",
              "name": "minimumBiddingPrice",
              "type": "uint256"
            },
            {
              "internalType": "string",
              "name": "OrganizationName",
              "type": "string"
            }
          ],
          "internalType": "struct DeployerApplication.ListObjects",
          "name": "",
          "type": "tuple"
        }
      ],
      "stateMutability": "view",
      "type": "function"
    },
    {
      "inputs": [],
      "name": "getOwner",
      "outputs": [
        {
          "internalType": "address",
          "name": "",
          "type": "address"
        }
      ],
      "stateMutability": "view",
      "type": "function"
    },
    {
      "inputs": [
        {
          "internalType": "string",
          "name": "_email",
          "type": "string"
        }
      ],
      "name": "getPassword",
      "outputs": [
        {
          "internalType": "string",
          "name": "",
          "type": "string"
        }
      ],
      "stateMutability": "view",
      "type": "function"
    },
    {
      "inputs": [],
      "name": "listOfContracts",
      "outputs": [
        {
          "components": [
            {
              "internalType": "uint256",
              "name": "tenderid",
              "type": "uint256"
            },
            {
              "internalType": "string",
              "name": "status",
              "type": "string"
            },
            {
              "internalType": "string",
              "name": "title",
              "type": "string"
            },
            {
              "internalType": "string",
              "name": "details",
              "type": "string"
            },
            {
              "internalType": "string",
              "name": "DeployedTime",
              "type": "string"
            },
            {
              "internalType": "string",
              "name": "Startdate",
              "type": "string"
            },
            {
              "internalType": "string",
              "name": "Lastdate",
              "type": "string"
            },
            {
              "internalType": "string",
              "name": "BidopeningDate",
              "type": "string"
            },
            {
              "internalType": "uint256",
              "name": "minimumBiddingPrice",
              "type": "uint256"
            },
            {
              "internalType": "string",
              "name": "OrganizationName",
              "type": "string"
            }
          ],
          "internalType": "struct DeployerApplication.ListObjects[]",
          "name": "",
          "type": "tuple[]"
        }
      ],
      "stateMutability": "view",
      "type": "function"
    }
  ],
  "bytecode": "0x608060405234801561001057600080fd5b50336000806101000a81548173ffffffffffffffffffffffffffffffffffffffff021916908373ffffffffffffffffffffffffffffffffffffffff160217905550613795806100606000396000f3fe608060405234801561001057600080fd5b506004361061009e5760003560e01c80636cf5d86e116100665780636cf5d86e1461016b578063893d20e81461019b578063b37a3d82146101b9578063bf40fac1146101d5578063d57230f7146102055761009e565b806301b8c31c146100a3578063216d90c2146100d35780633710b04e146101035780633bc7b07f1461011f578063645641041461014f575b600080fd5b6100bd60048036038101906100b89190612306565b610223565b6040516100ca91906123d7565b60405180910390f35b6100ed60048036038101906100e89190612306565b6102d3565b6040516100fa9190612629565b60405180910390f35b61011d60048036038101906101189190612677565b6108a2565b005b61013960048036038101906101349190612836565b610d45565b604051610146919061296e565b60405180910390f35b61016960048036038101906101649190612990565b611317565b005b61018560048036038101906101809190612836565b6116fe565b6040516101929190612ba5565b60405180910390f35b6101a361193a565b6040516101b09190612c08565b60405180910390f35b6101d360048036038101906101ce9190612c23565b611963565b005b6101ef60048036038101906101ea9190612306565b611c0d565b6040516101fc9190612c08565b60405180910390f35b61020d611c55565b60405161021a9190612629565b60405180910390f35b60606003826040516102359190612d66565b9081526020016040518091039020805461024e90612dac565b80601f016020809104026020016040519081016040528092919081815260200182805461027a90612dac565b80156102c75780601f1061029c576101008083540402835291602001916102c7565b820191906000526020600020905b8154815290600101906020018083116102aa57829003601f168201915b50505050509050919050565b6060600073ffffffffffffffffffffffffffffffffffffffff166002836040516102fd9190612d66565b908152602001604051809103902060009054906101000a900473ffffffffffffffffffffffffffffffffffffffff1673ffffffffffffffffffffffffffffffffffffffff1603610382576040517f08c379a000000000000000000000000000000000000000000000000000000000815260040161037990612e29565b60405180910390fd5b6004826040516103929190612d66565b9081526020016040518091039020805480602002602001604051908101604052809291908181526020016000905b8282101561089757838290600052602060002090600a020160405180610140016040529081600082015481526020016001820180546103fe90612dac565b80601f016020809104026020016040519081016040528092919081815260200182805461042a90612dac565b80156104775780601f1061044c57610100808354040283529160200191610477565b820191906000526020600020905b81548152906001019060200180831161045a57829003601f168201915b5050505050815260200160028201805461049090612dac565b80601f01602080910402602001604051908101604052809291908181526020018280546104bc90612dac565b80156105095780601f106104de57610100808354040283529160200191610509565b820191906000526020600020905b8154815290600101906020018083116104ec57829003601f168201915b5050505050815260200160038201805461052290612dac565b80601f016020809104026020016040519081016040528092919081815260200182805461054e90612dac565b801561059b5780601f106105705761010080835404028352916020019161059b565b820191906000526020600020905b81548152906001019060200180831161057e57829003601f168201915b505050505081526020016004820180546105b490612dac565b80601f01602080910402602001604051908101604052809291908181526020018280546105e090612dac565b801561062d5780601f106106025761010080835404028352916020019161062d565b820191906000526020600020905b81548152906001019060200180831161061057829003601f168201915b5050505050815260200160058201805461064690612dac565b80601f016020809104026020016040519081016040528092919081815260200182805461067290612dac565b80156106bf5780601f10610694576101008083540402835291602001916106bf565b820191906000526020600020905b8154815290600101906020018083116106a257829003601f168201915b505050505081526020016006820180546106d890612dac565b80601f016020809104026020016040519081016040528092919081815260200182805461070490612dac565b80156107515780601f1061072657610100808354040283529160200191610751565b820191906000526020600020905b81548152906001019060200180831161073457829003601f168201915b5050505050815260200160078201805461076a90612dac565b80601f016020809104026020016040519081016040528092919081815260200182805461079690612dac565b80156107e35780601f106107b8576101008083540402835291602001916107e3565b820191906000526020600020905b8154815290600101906020018083116107c657829003601f168201915b505050505081526020016008820154815260200160098201805461080690612dac565b80601f016020809104026020016040519081016040528092919081815260200182805461083290612dac565b801561087f5780601f106108545761010080835404028352916020019161087f565b820191906000526020600020905b81548152906001019060200180831161086257829003601f168201915b505050505081525050815260200190600101906103c0565b505050509050919050565b600073ffffffffffffffffffffffffffffffffffffffff166002600760003373ffffffffffffffffffffffffffffffffffffffff1673ffffffffffffffffffffffffffffffffffffffff16815260200190815260200160002060010160405161090b9190612ee1565b908152602001604051809103902060009054906101000a900473ffffffffffffffffffffffffffffffffffffffff1673ffffffffffffffffffffffffffffffffffffffff1603610990576040517f08c379a000000000000000000000000000000000000000000000000000000000815260040161098790612f44565b60405180910390fd5b6000600760003373ffffffffffffffffffffffffffffffffffffffff1673ffffffffffffffffffffffffffffffffffffffff16815260200190815260200160002060010180546109df90612dac565b80601f0160208091040260200160405190810160405280929190818152602001828054610a0b90612dac565b8015610a585780601f10610a2d57610100808354040283529160200191610a58565b820191906000526020600020905b815481529060010190602001808311610a3b57829003601f168201915b5050505050905060006040518061014001604052808d81526020018b81526020018c81526020018a8152602001898152602001888152602001878152602001868152602001858152602001848152509050600482604051610ab99190612d66565b90815260200160405180910390208190806001815401808255809150506001900390600052602060002090600a0201600090919091909150600082015181600001556020820151816001019081610b1091906130fb565b506040820151816002019081610b2691906130fb565b506060820151816003019081610b3c91906130fb565b506080820151816004019081610b5291906130fb565b5060a0820151816005019081610b6891906130fb565b5060c0820151816006019081610b7e91906130fb565b5060e0820151816007019081610b9491906130fb565b506101008201518160080155610120820151816009019081610bb691906130fb565b50505060068190806001815401808255809150506001900390600052602060002090600a0201600090919091909150600082015181600001556020820151816001019081610c0491906130fb565b506040820151816002019081610c1a91906130fb565b506060820151816003019081610c3091906130fb565b506080820151816004019081610c4691906130fb565b5060a0820151816005019081610c5c91906130fb565b5060c0820151816006019081610c7291906130fb565b5060e0820151816007019081610c8891906130fb565b506101008201518160080155610120820151816009019081610caa91906130fb565b50505060018060008e815260200190815260200160002060006101000a81548160ff02191690831515021790555081604051610ce69190612d66565b60405180910390207fdd25f4ad683f9264f286a72b0bda350db514ed11d128d80d92dc75d69fca3dcc8d8d8d8d8d8d8d8d8d8d604051610d2f9a999897969594939291906131dc565b60405180910390a2505050505050505050505050565b610d4d612159565b6001600083815260200190815260200160002060009054906101000a900460ff16610dad576040517f08c379a0000000000000000000000000000000000000000000000000000000008152600401610da4906132fc565b60405180910390fd5b60005b6006805490508110156112d6578260068281548110610dd257610dd161331c565b5b90600052602060002090600a020160000154036112c35760068181548110610dfd57610dfc61331c565b5b90600052602060002090600a02016040518061014001604052908160008201548152602001600182018054610e3190612dac565b80601f0160208091040260200160405190810160405280929190818152602001828054610e5d90612dac565b8015610eaa5780601f10610e7f57610100808354040283529160200191610eaa565b820191906000526020600020905b815481529060010190602001808311610e8d57829003601f168201915b50505050508152602001600282018054610ec390612dac565b80601f0160208091040260200160405190810160405280929190818152602001828054610eef90612dac565b8015610f3c5780601f10610f1157610100808354040283529160200191610f3c565b820191906000526020600020905b815481529060010190602001808311610f1f57829003601f168201915b50505050508152602001600382018054610f5590612dac565b80601f0160208091040260200160405190810160405280929190818152602001828054610f8190612dac565b8015610fce5780601f10610fa357610100808354040283529160200191610fce565b820191906000526020600020905b815481529060010190602001808311610fb157829003601f168201915b50505050508152602001600482018054610fe790612dac565b80601f016020809104026020016040519081016040528092919081815260200182805461101390612dac565b80156110605780601f1061103557610100808354040283529160200191611060565b820191906000526020600020905b81548152906001019060200180831161104357829003601f168201915b5050505050815260200160058201805461107990612dac565b80601f01602080910402602001604051908101604052809291908181526020018280546110a590612dac565b80156110f25780601f106110c7576101008083540402835291602001916110f2565b820191906000526020600020905b8154815290600101906020018083116110d557829003601f168201915b5050505050815260200160068201805461110b90612dac565b80601f016020809104026020016040519081016040528092919081815260200182805461113790612dac565b80156111845780601f1061115957610100808354040283529160200191611184565b820191906000526020600020905b81548152906001019060200180831161116757829003601f168201915b5050505050815260200160078201805461119d90612dac565b80601f01602080910402602001604051908101604052809291908181526020018280546111c990612dac565b80156112165780601f106111eb57610100808354040283529160200191611216565b820191906000526020600020905b8154815290600101906020018083116111f957829003601f168201915b505050505081526020016008820154815260200160098201805461123990612dac565b80601f016020809104026020016040519081016040528092919081815260200182805461126590612dac565b80156112b25780601f10611287576101008083540402835291602001916112b2565b820191906000526020600020905b81548152906001019060200180831161129557829003601f168201915b505050505081525050915050611312565b80806112ce9061337a565b915050610db0565b506040517f08c379a00000000000000000000000000000000000000000000000000000000081526004016113099061340e565b60405180910390fd5b919050565b6001600086815260200190815260200160002060009054906101000a900460ff16611377576040517f08c379a000000000000000000000000000000000000000000000000000000000815260040161136e9061347a565b60405180910390fd5b60006004600760003373ffffffffffffffffffffffffffffffffffffffff1673ffffffffffffffffffffffffffffffffffffffff1681526020019081526020016000206001016040516113ca9190612ee1565b908152602001604051809103902090506000818054905090506000805b838054905081101561143d57888482815481106114075761140661331c565b5b90600052602060002090600a0201600001540361142a578092506001915061143d565b80806114359061337a565b9150506113e7565b508061147e576040517f08c379a0000000000000000000000000000000000000000000000000000000008152600401611475906134e6565b60405180910390fd5b60008383815481106114935761149261331c565b5b90600052602060002090600a0201600801549050808610156114ea576040517f08c379a00000000000000000000000000000000000000000000000000000000081526004016114e190613578565b60405180910390fd5b6000805b600560008c8152602001908152602001600020805490508110156115b0578660405160200161151d9190612d66565b60405160208183030381529060405280519060200120600560008d815260200190815260200160002082815481106115585761155761331c565b5b90600052602060002090600502016004016040516020016115799190612ee1565b604051602081830303815290604052805190602001200361159d57600191506115b0565b80806115a89061337a565b9150506114ee565b5080156115f2576040517f08c379a00000000000000000000000000000000000000000000000000000000081526004016115e99061360a565b60405180910390fd5b60006040518060a001604052808c81526020018a81526020018981526020018b8152602001888152509050600560008c815260200190815260200160002081908060018154018082558091505060019003906000526020600020906005020160009091909190915060008201518160000155602082015181600101908161167991906130fb565b5060408201518160020155606082015181600301908161169991906130fb565b5060808201518160040190816116af91906130fb565b5050507f58d35c41205787785c2a1825481e26d7c38c1f85d6c02fb840319286f952e41b8b8b8b8b8b6040516116e995949392919061362a565b60405180910390a15050505050505050505050565b606060056000838152602001908152602001600020805480602002602001604051908101604052809291908181526020016000905b8282101561192f57838290600052602060002090600502016040518060a00160405290816000820154815260200160018201805461177090612dac565b80601f016020809104026020016040519081016040528092919081815260200182805461179c90612dac565b80156117e95780601f106117be576101008083540402835291602001916117e9565b820191906000526020600020905b8154815290600101906020018083116117cc57829003601f168201915b505050505081526020016002820154815260200160038201805461180c90612dac565b80601f016020809104026020016040519081016040528092919081815260200182805461183890612dac565b80156118855780601f1061185a57610100808354040283529160200191611885565b820191906000526020600020905b81548152906001019060200180831161186857829003601f168201915b5050505050815260200160048201805461189e90612dac565b80601f01602080910402602001604051908101604052809291908181526020018280546118ca90612dac565b80156119175780601f106118ec57610100808354040283529160200191611917565b820191906000526020600020905b8154815290600101906020018083116118fa57829003601f168201915b50505050508152505081526020019060010190611733565b505050509050919050565b60008060009054906101000a900473ffffffffffffffffffffffffffffffffffffffff16905090565b600073ffffffffffffffffffffffffffffffffffffffff1660028560405161198b9190612d66565b908152602001604051809103902060009054906101000a900473ffffffffffffffffffffffffffffffffffffffff1673ffffffffffffffffffffffffffffffffffffffff1614611a10576040517f08c379a0000000000000000000000000000000000000000000000000000000008152600401611a07906136de565b60405180910390fd5b6000339050604051806080016040528087815260200186815260200185815260200183815250600760008373ffffffffffffffffffffffffffffffffffffffff1673ffffffffffffffffffffffffffffffffffffffff1681526020019081526020016000206000820151816000019081611a8a91906130fb565b506020820151816001019081611aa091906130fb565b506040820151816002019081611ab691906130fb565b506060820151816003019081611acc91906130fb565b5090505080600286604051611ae19190612d66565b908152602001604051809103902060006101000a81548173ffffffffffffffffffffffffffffffffffffffff021916908373ffffffffffffffffffffffffffffffffffffffff1602179055506001600860008373ffffffffffffffffffffffffffffffffffffffff1673ffffffffffffffffffffffffffffffffffffffff16815260200190815260200160002060006101000a81548160ff02191690831515021790555082600386604051611b969190612d66565b90815260200160405180910390209081611bb091906130fb565b508073ffffffffffffffffffffffffffffffffffffffff167f10bb073e1ce0977d8bf7b641de8a59b02dd9c9d1c4badc9b30e5a48ac9fc8cb987878786604051611bfd94939291906136fe565b60405180910390a2505050505050565b6000600282604051611c1f9190612d66565b908152602001604051809103902060009054906101000a900473ffffffffffffffffffffffffffffffffffffffff169050919050565b60606006805480602002602001604051908101604052809291908181526020016000905b8282101561215057838290600052602060002090600a02016040518061014001604052908160008201548152602001600182018054611cb790612dac565b80601f0160208091040260200160405190810160405280929190818152602001828054611ce390612dac565b8015611d305780601f10611d0557610100808354040283529160200191611d30565b820191906000526020600020905b815481529060010190602001808311611d1357829003601f168201915b50505050508152602001600282018054611d4990612dac565b80601f0160208091040260200160405190810160405280929190818152602001828054611d7590612dac565b8015611dc25780601f10611d9757610100808354040283529160200191611dc2565b820191906000526020600020905b815481529060010190602001808311611da557829003601f168201915b50505050508152602001600382018054611ddb90612dac565b80601f0160208091040260200160405190810160405280929190818152602001828054611e0790612dac565b8015611e545780601f10611e2957610100808354040283529160200191611e54565b820191906000526020600020905b815481529060010190602001808311611e3757829003601f168201915b50505050508152602001600482018054611e6d90612dac565b80601f0160208091040260200160405190810160405280929190818152602001828054611e9990612dac565b8015611ee65780601f10611ebb57610100808354040283529160200191611ee6565b820191906000526020600020905b815481529060010190602001808311611ec957829003601f168201915b50505050508152602001600582018054611eff90612dac565b80601f0160208091040260200160405190810160405280929190818152602001828054611f2b90612dac565b8015611f785780601f10611f4d57610100808354040283529160200191611f78565b820191906000526020600020905b815481529060010190602001808311611f5b57829003601f168201915b50505050508152602001600682018054611f9190612dac565b80601f0160208091040260200160405190810160405280929190818152602001828054611fbd90612dac565b801561200a5780601f10611fdf5761010080835404028352916020019161200a565b820191906000526020600020905b815481529060010190602001808311611fed57829003601f168201915b5050505050815260200160078201805461202390612dac565b80601f016020809104026020016040519081016040528092919081815260200182805461204f90612dac565b801561209c5780601f106120715761010080835404028352916020019161209c565b820191906000526020600020905b81548152906001019060200180831161207f57829003601f168201915b50505050508152602001600882015481526020016009820180546120bf90612dac565b80601f01602080910402602001604051908101604052809291908181526020018280546120eb90612dac565b80156121385780601f1061210d57610100808354040283529160200191612138565b820191906000526020600020905b81548152906001019060200180831161211b57829003601f168201915b50505050508152505081526020019060010190611c79565b50505050905090565b604051806101400160405280600081526020016060815260200160608152602001606081526020016060815260200160608152602001606081526020016060815260200160008152602001606081525090565b6000604051905090565b600080fd5b600080fd5b600080fd5b600080fd5b6000601f19601f8301169050919050565b7f4e487b7100000000000000000000000000000000000000000000000000000000600052604160045260246000fd5b612213826121ca565b810181811067ffffffffffffffff82111715612232576122316121db565b5b80604052505050565b60006122456121ac565b9050612251828261220a565b919050565b600067ffffffffffffffff821115612271576122706121db565b5b61227a826121ca565b9050602081019050919050565b82818337600083830152505050565b60006122a96122a484612256565b61223b565b9050828152602081018484840111156122c5576122c46121c5565b5b6122d0848285612287565b509392505050565b600082601f8301126122ed576122ec6121c0565b5b81356122fd848260208601612296565b91505092915050565b60006020828403121561231c5761231b6121b6565b5b600082013567ffffffffffffffff81111561233a576123396121bb565b5b612346848285016122d8565b91505092915050565b600081519050919050565b600082825260208201905092915050565b60005b8381101561238957808201518184015260208101905061236e565b83811115612398576000848401525b50505050565b60006123a98261234f565b6123b3818561235a565b93506123c381856020860161236b565b6123cc816121ca565b840191505092915050565b600060208201905081810360008301526123f1818461239e565b905092915050565b600081519050919050565b600082825260208201905092915050565b6000819050602082019050919050565b6000819050919050565b61243881612425565b82525050565b600082825260208201905092915050565b600061245a8261234f565b612464818561243e565b935061247481856020860161236b565b61247d816121ca565b840191505092915050565b6000610140830160008301516124a1600086018261242f565b50602083015184820360208601526124b9828261244f565b915050604083015184820360408601526124d3828261244f565b915050606083015184820360608601526124ed828261244f565b91505060808301518482036080860152612507828261244f565b91505060a083015184820360a0860152612521828261244f565b91505060c083015184820360c086015261253b828261244f565b91505060e083015184820360e0860152612555828261244f565b91505061010083015161256c61010086018261242f565b50610120830151848203610120860152612586828261244f565b9150508091505092915050565b600061259f8383612488565b905092915050565b6000602082019050919050565b60006125bf826123f9565b6125c98185612404565b9350836020820285016125db85612415565b8060005b8581101561261757848403895281516125f88582612593565b9450612603836125a7565b925060208a019950506001810190506125df565b50829750879550505050505092915050565b6000602082019050818103600083015261264381846125b4565b905092915050565b61265481612425565b811461265f57600080fd5b50565b6000813590506126718161264b565b92915050565b6000806000806000806000806000806101408b8d03121561269b5761269a6121b6565b5b60006126a98d828e01612662565b9a505060208b013567ffffffffffffffff8111156126ca576126c96121bb565b5b6126d68d828e016122d8565b99505060408b013567ffffffffffffffff8111156126f7576126f66121bb565b5b6127038d828e016122d8565b98505060608b013567ffffffffffffffff811115612724576127236121bb565b5b6127308d828e016122d8565b97505060808b013567ffffffffffffffff811115612751576127506121bb565b5b61275d8d828e016122d8565b96505060a08b013567ffffffffffffffff81111561277e5761277d6121bb565b5b61278a8d828e016122d8565b95505060c08b013567ffffffffffffffff8111156127ab576127aa6121bb565b5b6127b78d828e016122d8565b94505060e08b013567ffffffffffffffff8111156127d8576127d76121bb565b5b6127e48d828e016122d8565b9350506101006127f68d828e01612662565b9250506101208b013567ffffffffffffffff811115612818576128176121bb565b5b6128248d828e016122d8565b9150509295989b9194979a5092959850565b60006020828403121561284c5761284b6121b6565b5b600061285a84828501612662565b91505092915050565b60006101408301600083015161287c600086018261242f565b5060208301518482036020860152612894828261244f565b915050604083015184820360408601526128ae828261244f565b915050606083015184820360608601526128c8828261244f565b915050608083015184820360808601526128e2828261244f565b91505060a083015184820360a08601526128fc828261244f565b91505060c083015184820360c0860152612916828261244f565b91505060e083015184820360e0860152612930828261244f565b91505061010083015161294761010086018261242f565b50610120830151848203610120860152612961828261244f565b9150508091505092915050565b600060208201905081810360008301526129888184612863565b905092915050565b600080600080600060a086880312156129ac576129ab6121b6565b5b60006129ba88828901612662565b955050602086013567ffffffffffffffff8111156129db576129da6121bb565b5b6129e7888289016122d8565b945050604086013567ffffffffffffffff811115612a0857612a076121bb565b5b612a14888289016122d8565b9350506060612a2588828901612662565b925050608086013567ffffffffffffffff811115612a4657612a456121bb565b5b612a52888289016122d8565b9150509295509295909350565b600081519050919050565b600082825260208201905092915050565b6000819050602082019050919050565b600060a083016000830151612aa3600086018261242f565b5060208301518482036020860152612abb828261244f565b9150506040830151612ad0604086018261242f565b5060608301518482036060860152612ae8828261244f565b91505060808301518482036080860152612b02828261244f565b9150508091505092915050565b6000612b1b8383612a8b565b905092915050565b6000602082019050919050565b6000612b3b82612a5f565b612b458185612a6a565b935083602082028501612b5785612a7b565b8060005b85811015612b935784840389528151612b748582612b0f565b9450612b7f83612b23565b925060208a01995050600181019050612b5b565b50829750879550505050505092915050565b60006020820190508181036000830152612bbf8184612b30565b905092915050565b600073ffffffffffffffffffffffffffffffffffffffff82169050919050565b6000612bf282612bc7565b9050919050565b612c0281612be7565b82525050565b6000602082019050612c1d6000830184612bf9565b92915050565b600080600080600060a08688031215612c3f57612c3e6121b6565b5b600086013567ffffffffffffffff811115612c5d57612c5c6121bb565b5b612c69888289016122d8565b955050602086013567ffffffffffffffff811115612c8a57612c896121bb565b5b612c96888289016122d8565b945050604086013567ffffffffffffffff811115612cb757612cb66121bb565b5b612cc3888289016122d8565b935050606086013567ffffffffffffffff811115612ce457612ce36121bb565b5b612cf0888289016122d8565b925050608086013567ffffffffffffffff811115612d1157612d106121bb565b5b612d1d888289016122d8565b9150509295509295909350565b600081905092915050565b6000612d408261234f565b612d4a8185612d2a565b9350612d5a81856020860161236b565b80840191505092915050565b6000612d728284612d35565b915081905092915050565b7f4e487b7100000000000000000000000000000000000000000000000000000000600052602260045260246000fd5b60006002820490506001821680612dc457607f821691505b602082108103612dd757612dd6612d7d565b5b50919050565b7f456d61696c206164647265737320646f6573206e6f7420657869737400000000600082015250565b6000612e13601c8361235a565b9150612e1e82612ddd565b602082019050919050565b60006020820190508181036000830152612e4281612e06565b9050919050565b60008190508160005260206000209050919050565b60008154612e6b81612dac565b612e758186612d2a565b94506001821660008114612e905760018114612ea557612ed8565b60ff1983168652811515820286019350612ed8565b612eae85612e49565b60005b83811015612ed057815481890152600182019150602081019050612eb1565b838801955050505b50505092915050565b6000612eed8284612e5e565b915081905092915050565b7f5573657220646f6573206e6f7420657869737400000000000000000000000000600082015250565b6000612f2e60138361235a565b9150612f3982612ef8565b602082019050919050565b60006020820190508181036000830152612f5d81612f21565b9050919050565b60006020601f8301049050919050565b600082821b905092915050565b600060088302612fb17fffffffffffffffffffffffffffffffffffffffffffffffffffffffffffffffff82612f74565b612fbb8683612f74565b95508019841693508086168417925050509392505050565b6000819050919050565b6000612ff8612ff3612fee84612425565b612fd3565b612425565b9050919050565b6000819050919050565b61301283612fdd565b61302661301e82612fff565b848454612f81565b825550505050565b600090565b61303b61302e565b613046818484613009565b505050565b5b8181101561306a5761305f600082613033565b60018101905061304c565b5050565b601f8211156130af5761308081612e49565b61308984612f64565b81016020851015613098578190505b6130ac6130a485612f64565b83018261304b565b50505b505050565b600082821c905092915050565b60006130d2600019846008026130b4565b1980831691505092915050565b60006130eb83836130c1565b9150826002028217905092915050565b6131048261234f565b67ffffffffffffffff81111561311d5761311c6121db565b5b6131278254612dac565b61313282828561306e565b600060209050601f8311600181146131655760008415613153578287015190505b61315d85826130df565b8655506131c5565b601f19841661317386612e49565b60005b8281101561319b57848901518255600182019150602085019450602081019050613176565b868310156131b857848901516131b4601f8916826130c1565b8355505b6001600288020188555050505b505050505050565b6131d681612425565b82525050565b6000610140820190506131f2600083018d6131cd565b8181036020830152613204818c61239e565b90508181036040830152613218818b61239e565b9050818103606083015261322c818a61239e565b90508181036080830152613240818961239e565b905081810360a0830152613254818861239e565b905081810360c0830152613268818761239e565b905081810360e083015261327c818661239e565b905061328c6101008301856131cd565b81810361012083015261329f818461239e565b90509b9a5050505050505050505050565b7f54656e646572494420446f6573204e6f74204578697374000000000000000000600082015250565b60006132e660178361235a565b91506132f1826132b0565b602082019050919050565b60006020820190508181036000830152613315816132d9565b9050919050565b7f4e487b7100000000000000000000000000000000000000000000000000000000600052603260045260246000fd5b7f4e487b7100000000000000000000000000000000000000000000000000000000600052601160045260246000fd5b600061338582612425565b91507fffffffffffffffffffffffffffffffffffffffffffffffffffffffffffffffff82036133b7576133b661334b565b5b600182019050919050565b7f54656e646572206e6f7420666f756e6400000000000000000000000000000000600082015250565b60006133f860108361235a565b9150613403826133c2565b602082019050919050565b60006020820190508181036000830152613427816133eb565b9050919050565b7f54656e64657220696420646f6573206e6f742065786973740000000000000000600082015250565b600061346460188361235a565b915061346f8261342e565b602082019050919050565b6000602082019050818103600083015261349381613457565b9050919050565b7f5573657220646f6573206e6f74206861766520746869732074656e6465720000600082015250565b60006134d0601e8361235a565b91506134db8261349a565b602082019050919050565b600060208201905081810360008301526134ff816134c3565b9050919050565b7f42696464696e6720616d6f756e74206973206c657373207468616e206d696e6960008201527f6d756d2062696464696e67207072696365000000000000000000000000000000602082015250565b600061356260318361235a565b915061356d82613506565b604082019050919050565b6000602082019050818103600083015261359181613555565b9050919050565b7f456d61696c20697320616c7265616479207265676973746572656420666f722060008201527f7468697320636f6e747261637400000000000000000000000000000000000000602082015250565b60006135f4602d8361235a565b91506135ff82613598565b604082019050919050565b60006020820190508181036000830152613623816135e7565b9050919050565b600060a08201905061363f60008301886131cd565b8181036020830152613651818761239e565b90508181036040830152613665818661239e565b905061367460608301856131cd565b8181036080830152613686818461239e565b90509695505050505050565b7f456d61696c206164647265737320616c72656164792065786973747300000000600082015250565b60006136c8601c8361235a565b91506136d382613692565b602082019050919050565b600060208201905081810360008301526136f7816136bb565b9050919050565b60006080820190508181036000830152613718818761239e565b9050818103602083015261372c818661239e565b90508181036040830152613740818561239e565b90508181036060830152613754818461239e565b90509594505050505056fea2646970667358221220cae088808649d2135b94958d19204836aa1b3f771b5b93c9ec588256a66b03b864736f6c634300080f0033",
  "linkReferences": {},
  "deployedLinkReferences": {}
}