{
  "_format": "hh-sol-artifact-1",
  "contractName": "DeployerApplication",
  "sourceName": "contracts/TenderChain.sol",
  "abi": [
    {
      "inputs": [],
      "stateMutability": "nonpayable",
      "type": "constructor"
    },
    {
      "inputs": [
        {
          "internalType": "uint256",
          "name": "_tenderid",
          "type": "uint256"
        },
        {
          "internalType": "string",
          "name": "_title",
          "type": "string"
        },
        {
          "internalType": "string",
          "name": "_status",
          "type": "string"
        },
        {
          "internalType": "string",
          "name": "_details",
          "type": "string"
        },
        {
          "internalType": "string",
          "name": "_DeployedTime",
          "type": "string"
        },
        {
          "internalType": "string",
          "name": "_Startdate",
          "type": "string"
        },
        {
          "internalType": "string",
          "name": "_Lastdate",
          "type": "string"
        },
        {
          "internalType": "string",
          "name": "_BidopeningDate",
          "type": "string"
        },
        {
          "internalType": "string",
          "name": "_OrganizationName",
          "type": "string"
        }
      ],
      "name": "DeployContract",
      "outputs": [],
      "stateMutability": "nonpayable",
      "type": "function"
    },
    {
      "inputs": [
        {
          "internalType": "string",
          "name": "_name",
          "type": "string"
        },
        {
          "internalType": "string",
          "name": "_email",
          "type": "string"
        },
        {
          "internalType": "string",
          "name": "_country",
          "type": "string"
        },
        {
          "internalType": "string",
          "name": "_phoneNumber",
          "type": "string"
        }
      ],
      "name": "addUser",
      "outputs": [],
      "stateMutability": "nonpayable",
      "type": "function"
    },
    {
      "inputs": [
        {
          "internalType": "address",
          "name": "_userAddress",
          "type": "address"
        }
      ],
      "name": "getMemo",
      "outputs": [
        {
          "internalType": "uint256",
          "name": "",
          "type": "uint256"
        },
        {
          "internalType": "string",
          "name": "",
          "type": "string"
        },
        {
          "internalType": "string",
          "name": "",
          "type": "string"
        },
        {
          "internalType": "string",
          "name": "",
          "type": "string"
        },
        {
          "internalType": "string",
          "name": "",
          "type": "string"
        },
        {
          "internalType": "string",
          "name": "",
          "type": "string"
        },
        {
          "internalType": "string",
          "name": "",
          "type": "string"
        },
        {
          "internalType": "string",
          "name": "",
          "type": "string"
        },
        {
          "internalType": "string",
          "name": "",
          "type": "string"
        }
      ],
      "stateMutability": "view",
      "type": "function"
    },
    {
      "inputs": [],
      "name": "owner",
      "outputs": [
        {
          "internalType": "address payable",
          "name": "",
          "type": "address"
        }
      ],
      "stateMutability": "view",
      "type": "function"
    }
  ],
  "bytecode": "0x608060405234801561001057600080fd5b50336000806101000a81548173ffffffffffffffffffffffffffffffffffffffff021916908373ffffffffffffffffffffffffffffffffffffffff1602179055506117d2806100606000396000f3fe608060405234801561001057600080fd5b506004361061004c5760003560e01c806301cda3ac14610051578063041d32fe1461006d5780638da5cb5b14610089578063fd16c512146100a7575b600080fd5b61006b60048036038101906100669190610f25565b6100df565b005b61008760048036038101906100829190611032565b61025b565b005b6100916105b9565b60405161009e919061121d565b60405180910390f35b6100c160048036038101906100bc9190611276565b6105dd565b6040516100d69998979695949392919061133a565b60405180910390f35b6000339050604051806080016040528086815260200185815260200184815260200183815250600360008373ffffffffffffffffffffffffffffffffffffffff1673ffffffffffffffffffffffffffffffffffffffff1681526020019081526020016000206000820151816000019081610159919061160b565b50602082015181600101908161016f919061160b565b506040820151816002019081610185919061160b565b50606082015181600301908161019b919061160b565b50905050806001856040516101b09190611719565b908152602001604051809103902060006101000a81548173ffffffffffffffffffffffffffffffffffffffff021916908373ffffffffffffffffffffffffffffffffffffffff1602179055506001600460008373ffffffffffffffffffffffffffffffffffffffff1673ffffffffffffffffffffffffffffffffffffffff16815260200190815260200160002060006101000a81548160ff0219169083151502179055505050505050565b600460003373ffffffffffffffffffffffffffffffffffffffff1673ffffffffffffffffffffffffffffffffffffffff16815260200190815260200160002060009054906101000a900460ff166102e7576040517f08c379a00000000000000000000000000000000000000000000000000000000081526004016102de9061177c565b60405180910390fd5b88600260003373ffffffffffffffffffffffffffffffffffffffff1673ffffffffffffffffffffffffffffffffffffffff1681526020019081526020016000206000018190555087600260003373ffffffffffffffffffffffffffffffffffffffff1673ffffffffffffffffffffffffffffffffffffffff168152602001908152602001600020600201908161037d919061160b565b5086600260003373ffffffffffffffffffffffffffffffffffffffff1673ffffffffffffffffffffffffffffffffffffffff16815260200190815260200160002060010190816103cd919061160b565b5085600260003373ffffffffffffffffffffffffffffffffffffffff1673ffffffffffffffffffffffffffffffffffffffff168152602001908152602001600020600301908161041d919061160b565b5084600260003373ffffffffffffffffffffffffffffffffffffffff1673ffffffffffffffffffffffffffffffffffffffff168152602001908152602001600020600401908161046d919061160b565b5083600260003373ffffffffffffffffffffffffffffffffffffffff1673ffffffffffffffffffffffffffffffffffffffff16815260200190815260200160002060050190816104bd919061160b565b5082600260003373ffffffffffffffffffffffffffffffffffffffff1673ffffffffffffffffffffffffffffffffffffffff168152602001908152602001600020600601908161050d919061160b565b5081600260003373ffffffffffffffffffffffffffffffffffffffff1673ffffffffffffffffffffffffffffffffffffffff168152602001908152602001600020600701908161055d919061160b565b5080600260003373ffffffffffffffffffffffffffffffffffffffff1673ffffffffffffffffffffffffffffffffffffffff16815260200190815260200160002060080190816105ad919061160b565b50505050505050505050565b60008054906101000a900473ffffffffffffffffffffffffffffffffffffffff1681565b6000606080606080606080606080600460008b73ffffffffffffffffffffffffffffffffffffffff1673ffffffffffffffffffffffffffffffffffffffff16815260200190815260200160002060009054906101000a900460ff16610677576040517f08c379a000000000000000000000000000000000000000000000000000000000815260040161066e9061177c565b60405180910390fd5b8973ffffffffffffffffffffffffffffffffffffffff1660008054906101000a900473ffffffffffffffffffffffffffffffffffffffff1673ffffffffffffffffffffffffffffffffffffffff1603610bf9576000600260008c73ffffffffffffffffffffffffffffffffffffffff1673ffffffffffffffffffffffffffffffffffffffff16815260200190815260200160002060405180610120016040529081600082015481526020016001820180546107319061142e565b80601f016020809104026020016040519081016040528092919081815260200182805461075d9061142e565b80156107aa5780601f1061077f576101008083540402835291602001916107aa565b820191906000526020600020905b81548152906001019060200180831161078d57829003601f168201915b505050505081526020016002820180546107c39061142e565b80601f01602080910402602001604051908101604052809291908181526020018280546107ef9061142e565b801561083c5780601f106108115761010080835404028352916020019161083c565b820191906000526020600020905b81548152906001019060200180831161081f57829003601f168201915b505050505081526020016003820180546108559061142e565b80601f01602080910402602001604051908101604052809291908181526020018280546108819061142e565b80156108ce5780601f106108a3576101008083540402835291602001916108ce565b820191906000526020600020905b8154815290600101906020018083116108b157829003601f168201915b505050505081526020016004820180546108e79061142e565b80601f01602080910402602001604051908101604052809291908181526020018280546109139061142e565b80156109605780601f1061093557610100808354040283529160200191610960565b820191906000526020600020905b81548152906001019060200180831161094357829003601f168201915b505050505081526020016005820180546109799061142e565b80601f01602080910402602001604051908101604052809291908181526020018280546109a59061142e565b80156109f25780601f106109c7576101008083540402835291602001916109f2565b820191906000526020600020905b8154815290600101906020018083116109d557829003601f168201915b50505050508152602001600682018054610a0b9061142e565b80601f0160208091040260200160405190810160405280929190818152602001828054610a379061142e565b8015610a845780601f10610a5957610100808354040283529160200191610a84565b820191906000526020600020905b815481529060010190602001808311610a6757829003601f168201915b50505050508152602001600782018054610a9d9061142e565b80601f0160208091040260200160405190810160405280929190818152602001828054610ac99061142e565b8015610b165780601f10610aeb57610100808354040283529160200191610b16565b820191906000526020600020905b815481529060010190602001808311610af957829003601f168201915b50505050508152602001600882018054610b2f9061142e565b80601f0160208091040260200160405190810160405280929190818152602001828054610b5b9061142e565b8015610ba85780601f10610b7d57610100808354040283529160200191610ba8565b820191906000526020600020905b815481529060010190602001808311610b8b57829003601f168201915b5050505050815250509050806000015181602001518260400151836060015184608001518560a001518660c001518760e0015188610100015199509950995099509950995099509950995050610dbe565b60006040518060400160405280600481526020017f4e6f6e65000000000000000000000000000000000000000000000000000000008152506040518060400160405280600481526020017f4e6f6e65000000000000000000000000000000000000000000000000000000008152506040518060400160405280600481526020017f4e6f6e65000000000000000000000000000000000000000000000000000000008152506040518060400160405280600481526020017f4e6f6e65000000000000000000000000000000000000000000000000000000008152506040518060400160405280600481526020017f4e6f6e65000000000000000000000000000000000000000000000000000000008152506040518060400160405280600481526020017f4e6f6e65000000000000000000000000000000000000000000000000000000008152506040518060400160405280600481526020017f4e6f6e65000000000000000000000000000000000000000000000000000000008152506040518060400160405280600481526020017f4e6f6e65000000000000000000000000000000000000000000000000000000008152509850985098509850985098509850985098505b9193959799909294969850565b6000604051905090565b600080fd5b600080fd5b600080fd5b600080fd5b6000601f19601f8301169050919050565b7f4e487b7100000000000000000000000000000000000000000000000000000000600052604160045260246000fd5b610e3282610de9565b810181811067ffffffffffffffff82111715610e5157610e50610dfa565b5b80604052505050565b6000610e64610dcb565b9050610e708282610e29565b919050565b600067ffffffffffffffff821115610e9057610e8f610dfa565b5b610e9982610de9565b9050602081019050919050565b82818337600083830152505050565b6000610ec8610ec384610e75565b610e5a565b905082815260208101848484011115610ee457610ee3610de4565b5b610eef848285610ea6565b509392505050565b600082601f830112610f0c57610f0b610ddf565b5b8135610f1c848260208601610eb5565b91505092915050565b60008060008060808587031215610f3f57610f3e610dd5565b5b600085013567ffffffffffffffff811115610f5d57610f5c610dda565b5b610f6987828801610ef7565b945050602085013567ffffffffffffffff811115610f8a57610f89610dda565b5b610f9687828801610ef7565b935050604085013567ffffffffffffffff811115610fb757610fb6610dda565b5b610fc387828801610ef7565b925050606085013567ffffffffffffffff811115610fe457610fe3610dda565b5b610ff087828801610ef7565b91505092959194509250565b6000819050919050565b61100f81610ffc565b811461101a57600080fd5b50565b60008135905061102c81611006565b92915050565b60008060008060008060008060006101208a8c03121561105557611054610dd5565b5b60006110638c828d0161101d565b99505060208a013567ffffffffffffffff81111561108457611083610dda565b5b6110908c828d01610ef7565b98505060408a013567ffffffffffffffff8111156110b1576110b0610dda565b5b6110bd8c828d01610ef7565b97505060608a013567ffffffffffffffff8111156110de576110dd610dda565b5b6110ea8c828d01610ef7565b96505060808a013567ffffffffffffffff81111561110b5761110a610dda565b5b6111178c828d01610ef7565b95505060a08a013567ffffffffffffffff81111561113857611137610dda565b5b6111448c828d01610ef7565b94505060c08a013567ffffffffffffffff81111561116557611164610dda565b5b6111718c828d01610ef7565b93505060e08a013567ffffffffffffffff81111561119257611191610dda565b5b61119e8c828d01610ef7565b9250506101008a013567ffffffffffffffff8111156111c0576111bf610dda565b5b6111cc8c828d01610ef7565b9150509295985092959850929598565b600073ffffffffffffffffffffffffffffffffffffffff82169050919050565b6000611207826111dc565b9050919050565b611217816111fc565b82525050565b6000602082019050611232600083018461120e565b92915050565b6000611243826111dc565b9050919050565b61125381611238565b811461125e57600080fd5b50565b6000813590506112708161124a565b92915050565b60006020828403121561128c5761128b610dd5565b5b600061129a84828501611261565b91505092915050565b6112ac81610ffc565b82525050565b600081519050919050565b600082825260208201905092915050565b60005b838110156112ec5780820151818401526020810190506112d1565b838111156112fb576000848401525b50505050565b600061130c826112b2565b61131681856112bd565b93506113268185602086016112ce565b61132f81610de9565b840191505092915050565b600061012082019050611350600083018c6112a3565b8181036020830152611362818b611301565b90508181036040830152611376818a611301565b9050818103606083015261138a8189611301565b9050818103608083015261139e8188611301565b905081810360a08301526113b28187611301565b905081810360c08301526113c68186611301565b905081810360e08301526113da8185611301565b90508181036101008301526113ef8184611301565b90509a9950505050505050505050565b7f4e487b7100000000000000000000000000000000000000000000000000000000600052602260045260246000fd5b6000600282049050600182168061144657607f821691505b602082108103611459576114586113ff565b5b50919050565b60008190508160005260206000209050919050565b60006020601f8301049050919050565b600082821b905092915050565b6000600883026114c17fffffffffffffffffffffffffffffffffffffffffffffffffffffffffffffffff82611484565b6114cb8683611484565b95508019841693508086168417925050509392505050565b6000819050919050565b60006115086115036114fe84610ffc565b6114e3565b610ffc565b9050919050565b6000819050919050565b611522836114ed565b61153661152e8261150f565b848454611491565b825550505050565b600090565b61154b61153e565b611556818484611519565b505050565b5b8181101561157a5761156f600082611543565b60018101905061155c565b5050565b601f8211156115bf576115908161145f565b61159984611474565b810160208510156115a8578190505b6115bc6115b485611474565b83018261155b565b50505b505050565b600082821c905092915050565b60006115e2600019846008026115c4565b1980831691505092915050565b60006115fb83836115d1565b9150826002028217905092915050565b611614826112b2565b67ffffffffffffffff81111561162d5761162c610dfa565b5b611637825461142e565b61164282828561157e565b600060209050601f8311600181146116755760008415611663578287015190505b61166d85826115ef565b8655506116d5565b601f1984166116838661145f565b60005b828110156116ab57848901518255600182019150602085019450602081019050611686565b868310156116c857848901516116c4601f8916826115d1565b8355505b6001600288020188555050505b505050505050565b600081905092915050565b60006116f3826112b2565b6116fd81856116dd565b935061170d8185602086016112ce565b80840191505092915050565b600061172582846116e8565b915081905092915050565b7f5573657220646f6573206e6f7420657869737400000000000000000000000000600082015250565b60006117666013836112bd565b915061177182611730565b602082019050919050565b6000602082019050818103600083015261179581611759565b905091905056fea26469706673582212206441045a9a8b38369025f27539d72604e4e92b2236ad6d3d5a3e5bc650ab62e564736f6c634300080f0033",
  "linkReferences": {},
  "deployedLinkReferences": {}
}